{
	"contracts/FundMe.sol": {
		"FundMe": {
			"abi": [
				{
					"inputs": [
						{
							"internalType": "address",
							"name": "",
							"type": "address"
						}
					],
					"name": "addressToAmountFunded",
					"outputs": [
						{
							"internalType": "uint256",
							"name": "",
							"type": "uint256"
						}
					],
					"stateMutability": "view",
					"type": "function"
				},
				{
					"inputs": [],
					"name": "fund",
					"outputs": [],
					"stateMutability": "payable",
					"type": "function"
				},
				{
					"inputs": [
						{
							"internalType": "uint256",
							"name": "ethAmount",
							"type": "uint256"
						}
					],
					"name": "getConversionRate",
					"outputs": [
						{
							"internalType": "uint256",
							"name": "",
							"type": "uint256"
						}
					],
					"stateMutability": "view",
					"type": "function"
				},
				{
					"inputs": [],
					"name": "getPrice",
					"outputs": [
						{
							"internalType": "uint256",
							"name": "",
							"type": "uint256"
						}
					],
					"stateMutability": "view",
					"type": "function"
				},
				{
					"inputs": [],
					"name": "getVersion",
					"outputs": [
						{
							"internalType": "uint256",
							"name": "",
							"type": "uint256"
						}
					],
					"stateMutability": "view",
					"type": "function"
				}
			],
			"devdoc": {
				"kind": "dev",
				"methods": {},
				"version": 1
			},
			"evm": {
				"assembly": "    /* \"contracts/FundMe.sol\":252:1853  contract FundMe {... */\n  mstore(0x40, 0x80)\n  callvalue\n  dup1\n  iszero\n  tag_1\n  jumpi\n  0x00\n  dup1\n  revert\ntag_1:\n  pop\n  dataSize(sub_0)\n  dup1\n  dataOffset(sub_0)\n  0x00\n  codecopy\n  0x00\n  return\nstop\n\nsub_0: assembly {\n        /* \"contracts/FundMe.sol\":252:1853  contract FundMe {... */\n      mstore(0x40, 0x80)\n      jumpi(tag_1, lt(calldatasize, 0x04))\n      shr(0xe0, calldataload(0x00))\n      dup1\n      0x0d8e6e2c\n      eq\n      tag_2\n      jumpi\n      dup1\n      0x3e47d6f3\n      eq\n      tag_3\n      jumpi\n      dup1\n      0x6e5b6b28\n      eq\n      tag_4\n      jumpi\n      dup1\n      0x98d5fdca\n      eq\n      tag_5\n      jumpi\n      dup1\n      0xb60d4288\n      eq\n      tag_6\n      jumpi\n    tag_1:\n      0x00\n      dup1\n      revert\n        /* \"contracts/FundMe.sol\":850:1119  function getVersion() public view returns (uint256) {... */\n    tag_2:\n      callvalue\n      dup1\n      iszero\n      tag_7\n      jumpi\n      0x00\n      dup1\n      revert\n    tag_7:\n      pop\n      tag_8\n      tag_9\n      jump\t// in\n    tag_8:\n      mload(0x40)\n      tag_10\n      swap2\n      swap1\n      tag_11\n      jump\t// in\n    tag_10:\n      mload(0x40)\n      dup1\n      swap2\n      sub\n      swap1\n      return\n        /* \"contracts/FundMe.sol\":382:438  mapping(address => uint256) public addressToAmountFunded */\n    tag_3:\n      callvalue\n      dup1\n      iszero\n      tag_12\n      jumpi\n      0x00\n      dup1\n      revert\n    tag_12:\n      pop\n      tag_13\n      0x04\n      dup1\n      calldatasize\n      sub\n      dup2\n      add\n      swap1\n      tag_14\n      swap2\n      swap1\n      tag_15\n      jump\t// in\n    tag_14:\n      tag_16\n      jump\t// in\n    tag_13:\n      mload(0x40)\n      tag_17\n      swap2\n      swap1\n      tag_11\n      jump\t// in\n    tag_17:\n      mload(0x40)\n      dup1\n      swap2\n      sub\n      swap1\n      return\n        /* \"contracts/FundMe.sol\":1575:1851  function getConversionRate(uint256 ethAmount) public view returns (uint256) {... */\n    tag_4:\n      callvalue\n      dup1\n      iszero\n      tag_18\n      jumpi\n      0x00\n      dup1\n      revert\n    tag_18:\n      pop\n      tag_19\n      0x04\n      dup1\n      calldatasize\n      sub\n      dup2\n      add\n      swap1\n      tag_20\n      swap2\n      swap1\n      tag_21\n      jump\t// in\n    tag_20:\n      tag_22\n      jump\t// in\n    tag_19:\n      mload(0x40)\n      tag_23\n      swap2\n      swap1\n      tag_11\n      jump\t// in\n    tag_23:\n      mload(0x40)\n      dup1\n      swap2\n      sub\n      swap1\n      return\n        /* \"contracts/FundMe.sol\":1125:1569  function getPrice() public view returns (uint256) {... */\n    tag_5:\n      callvalue\n      dup1\n      iszero\n      tag_24\n      jumpi\n      0x00\n      dup1\n      revert\n    tag_24:\n      pop\n      tag_25\n      tag_26\n      jump\t// in\n    tag_25:\n      mload(0x40)\n      tag_27\n      swap2\n      swap1\n      tag_11\n      jump\t// in\n    tag_27:\n      mload(0x40)\n      dup1\n      swap2\n      sub\n      swap1\n      return\n        /* \"contracts/FundMe.sol\":481:844  function fund() public payable {... */\n    tag_6:\n      tag_28\n      tag_29\n      jump\t// in\n    tag_28:\n      stop\n        /* \"contracts/FundMe.sol\":850:1119  function getVersion() public view returns (uint256) {... */\n    tag_9:\n        /* \"contracts/FundMe.sol\":893:900  uint256 */\n      0x00\n        /* \"contracts/FundMe.sol\":912:943  AggregatorV3Interface priceFeed */\n      dup1\n        /* \"contracts/FundMe.sol\":968:1010  0x8A753747A1Fa494EC906cE90E9f37563A8AF630e */\n      0x8a753747a1fa494ec906ce90e9f37563a8af630e\n        /* \"contracts/FundMe.sol\":912:1011  AggregatorV3Interface priceFeed = AggregatorV3Interface(0x8A753747A1Fa494EC906cE90E9f37563A8AF630e) */\n      swap1\n      pop\n        /* \"contracts/FundMe.sol\":1093:1102  priceFeed */\n      dup1\n        /* \"contracts/FundMe.sol\":1093:1110  priceFeed.version */\n      0xffffffffffffffffffffffffffffffffffffffff\n      and\n      0x54fd4d50\n        /* \"contracts/FundMe.sol\":1093:1112  priceFeed.version() */\n      mload(0x40)\n      dup2\n      0xffffffff\n      and\n      0xe0\n      shl\n      dup2\n      mstore\n      0x04\n      add\n      0x20\n      mload(0x40)\n      dup1\n      dup4\n      sub\n      dup2\n      dup7\n      gas\n      staticcall\n      iszero\n      dup1\n      iszero\n      tag_32\n      jumpi\n      returndatasize\n      0x00\n      dup1\n      returndatacopy\n      revert(0x00, returndatasize)\n    tag_32:\n      pop\n      pop\n      pop\n      pop\n      mload(0x40)\n      returndatasize\n      not(0x1f)\n      0x1f\n      dup3\n      add\n      and\n      dup3\n      add\n      dup1\n      0x40\n      mstore\n      pop\n      dup2\n      add\n      swap1\n      tag_33\n      swap2\n      swap1\n      tag_34\n      jump\t// in\n    tag_33:\n        /* \"contracts/FundMe.sol\":1086:1112  return priceFeed.version() */\n      swap2\n      pop\n      pop\n        /* \"contracts/FundMe.sol\":850:1119  function getVersion() public view returns (uint256) {... */\n      swap1\n      jump\t// out\n        /* \"contracts/FundMe.sol\":382:438  mapping(address => uint256) public addressToAmountFunded */\n    tag_16:\n      mstore(0x20, 0x00)\n      dup1\n      0x00\n      mstore\n      keccak256(0x00, 0x40)\n      0x00\n      swap2\n      pop\n      swap1\n      pop\n      sload\n      dup2\n      jump\t// out\n        /* \"contracts/FundMe.sol\":1575:1851  function getConversionRate(uint256 ethAmount) public view returns (uint256) {... */\n    tag_22:\n        /* \"contracts/FundMe.sol\":1642:1649  uint256 */\n      0x00\n        /* \"contracts/FundMe.sol\":1661:1677  uint256 ethPrice */\n      dup1\n        /* \"contracts/FundMe.sol\":1680:1690  getPrice() */\n      tag_36\n        /* \"contracts/FundMe.sol\":1680:1688  getPrice */\n      tag_26\n        /* \"contracts/FundMe.sol\":1680:1690  getPrice() */\n      jump\t// in\n    tag_36:\n        /* \"contracts/FundMe.sol\":1661:1690  uint256 ethPrice = getPrice() */\n      swap1\n      pop\n        /* \"contracts/FundMe.sol\":1700:1723  uint256 ethAmountInUsed */\n      0x00\n        /* \"contracts/FundMe.sol\":1750:1769  1000000000000000000 */\n      0x0de0b6b3a7640000\n        /* \"contracts/FundMe.sol\":1738:1747  ethAmount */\n      dup5\n        /* \"contracts/FundMe.sol\":1727:1735  ethPrice */\n      dup4\n        /* \"contracts/FundMe.sol\":1727:1747  ethPrice * ethAmount */\n      tag_37\n      swap2\n      swap1\n      tag_38\n      jump\t// in\n    tag_37:\n        /* \"contracts/FundMe.sol\":1727:1769  ethPrice * ethAmount / 1000000000000000000 */\n      tag_39\n      swap2\n      swap1\n      tag_40\n      jump\t// in\n    tag_39:\n        /* \"contracts/FundMe.sol\":1700:1770  uint256 ethAmountInUsed = (ethPrice * ethAmount / 1000000000000000000) */\n      swap1\n      pop\n        /* \"contracts/FundMe.sol\":1787:1802  ethAmountInUsed */\n      dup1\n        /* \"contracts/FundMe.sol\":1780:1802  return ethAmountInUsed */\n      swap3\n      pop\n      pop\n      pop\n        /* \"contracts/FundMe.sol\":1575:1851  function getConversionRate(uint256 ethAmount) public view returns (uint256) {... */\n      swap2\n      swap1\n      pop\n      jump\t// out\n        /* \"contracts/FundMe.sol\":1125:1569  function getPrice() public view returns (uint256) {... */\n    tag_26:\n        /* \"contracts/FundMe.sol\":1166:1173  uint256 */\n      0x00\n        /* \"contracts/FundMe.sol\":1185:1216  AggregatorV3Interface priceFeed */\n      dup1\n        /* \"contracts/FundMe.sol\":1241:1283  0x8A753747A1Fa494EC906cE90E9f37563A8AF630e */\n      0x8a753747a1fa494ec906ce90e9f37563a8af630e\n        /* \"contracts/FundMe.sol\":1185:1284  AggregatorV3Interface priceFeed = AggregatorV3Interface(0x8A753747A1Fa494EC906cE90E9f37563A8AF630e) */\n      swap1\n      pop\n        /* \"contracts/FundMe.sol\":1469:1482  int256 answer */\n      0x00\n        /* \"contracts/FundMe.sol\":1489:1498  priceFeed */\n      dup2\n        /* \"contracts/FundMe.sol\":1489:1514  priceFeed.latestRoundData */\n      0xffffffffffffffffffffffffffffffffffffffff\n      and\n      0xfeaf968c\n        /* \"contracts/FundMe.sol\":1489:1516  priceFeed.latestRoundData() */\n      mload(0x40)\n      dup2\n      0xffffffff\n      and\n      0xe0\n      shl\n      dup2\n      mstore\n      0x04\n      add\n      0xa0\n      mload(0x40)\n      dup1\n      dup4\n      sub\n      dup2\n      dup7\n      gas\n      staticcall\n      iszero\n      dup1\n      iszero\n      tag_43\n      jumpi\n      returndatasize\n      0x00\n      dup1\n      returndatacopy\n      revert(0x00, returndatasize)\n    tag_43:\n      pop\n      pop\n      pop\n      pop\n      mload(0x40)\n      returndatasize\n      not(0x1f)\n      0x1f\n      dup3\n      add\n      and\n      dup3\n      add\n      dup1\n      0x40\n      mstore\n      pop\n      dup2\n      add\n      swap1\n      tag_44\n      swap2\n      swap1\n      tag_45\n      jump\t// in\n    tag_44:\n        /* \"contracts/FundMe.sol\":1467:1516  (,int256 answer,,,) = priceFeed.latestRoundData() */\n      pop\n      pop\n      pop\n      swap2\n      pop\n      pop\n        /* \"contracts/FundMe.sol\":1550:1561  10000000000 */\n      0x02540be400\n        /* \"contracts/FundMe.sol\":1541:1547  answer */\n      dup2\n        /* \"contracts/FundMe.sol\":1541:1561  answer * 10000000000 */\n      tag_46\n      swap2\n      swap1\n      tag_47\n      jump\t// in\n    tag_46:\n        /* \"contracts/FundMe.sol\":1526:1562  return uint256(answer * 10000000000) */\n      swap3\n      pop\n      pop\n      pop\n        /* \"contracts/FundMe.sol\":1125:1569  function getPrice() public view returns (uint256) {... */\n      swap1\n      jump\t// out\n        /* \"contracts/FundMe.sol\":481:844  function fund() public payable {... */\n    tag_29:\n        /* \"contracts/FundMe.sol\":559:568  msg.value */\n      callvalue\n        /* \"contracts/FundMe.sol\":522:543  addressToAmountFunded */\n      0x00\n        /* \"contracts/FundMe.sol\":522:555  addressToAmountFunded[msg.sender] */\n      dup1\n        /* \"contracts/FundMe.sol\":544:554  msg.sender */\n      caller\n        /* \"contracts/FundMe.sol\":522:555  addressToAmountFunded[msg.sender] */\n      0xffffffffffffffffffffffffffffffffffffffff\n      and\n      0xffffffffffffffffffffffffffffffffffffffff\n      and\n      dup2\n      mstore\n      0x20\n      add\n      swap1\n      dup2\n      mstore\n      0x20\n      add\n      0x00\n      keccak256\n      0x00\n        /* \"contracts/FundMe.sol\":522:568  addressToAmountFunded[msg.sender] += msg.value */\n      dup3\n      dup3\n      sload\n      tag_49\n      swap2\n      swap1\n      tag_50\n      jump\t// in\n    tag_49:\n      swap3\n      pop\n      pop\n      dup2\n      swap1\n      sstore\n      pop\n        /* \"contracts/FundMe.sol\":625:643  uint256 minimumUSD */\n      0x00\n        /* \"contracts/FundMe.sol\":646:659  50 * 10 ** 18 */\n      0x02b5e3af16b1880000\n        /* \"contracts/FundMe.sol\":625:659  uint256 minimumUSD = 50 * 10 ** 18 */\n      swap1\n      pop\n        /* \"contracts/FundMe.sol\":767:777  minimumUSD */\n      dup1\n        /* \"contracts/FundMe.sol\":735:763  getConversionRate(msg.value) */\n      tag_51\n        /* \"contracts/FundMe.sol\":753:762  msg.value */\n      callvalue\n        /* \"contracts/FundMe.sol\":735:752  getConversionRate */\n      tag_22\n        /* \"contracts/FundMe.sol\":735:763  getConversionRate(msg.value) */\n      jump\t// in\n    tag_51:\n        /* \"contracts/FundMe.sol\":735:777  getConversionRate(msg.value) >= minimumUSD */\n      lt\n      iszero\n        /* \"contracts/FundMe.sol\":727:836  require(getConversionRate(msg.value) >= minimumUSD, \"You need to spend more ETH!, it should be more than 50\") */\n      tag_52\n      jumpi\n      mload(0x40)\n      0x08c379a000000000000000000000000000000000000000000000000000000000\n      dup2\n      mstore\n      0x04\n      add\n      tag_53\n      swap1\n      tag_54\n      jump\t// in\n    tag_53:\n      mload(0x40)\n      dup1\n      swap2\n      sub\n      swap1\n      revert\n    tag_52:\n        /* \"contracts/FundMe.sol\":512:844  {... */\n      pop\n        /* \"contracts/FundMe.sol\":481:844  function fund() public payable {... */\n      jump\t// out\n        /* \"#utility.yul\":7:84   */\n    tag_55:\n        /* \"#utility.yul\":44:51   */\n      0x00\n        /* \"#utility.yul\":73:78   */\n      dup2\n        /* \"#utility.yul\":62:78   */\n      swap1\n      pop\n        /* \"#utility.yul\":7:84   */\n      swap2\n      swap1\n      pop\n      jump\t// out\n        /* \"#utility.yul\":90:208   */\n    tag_56:\n        /* \"#utility.yul\":177:201   */\n      tag_81\n        /* \"#utility.yul\":195:200   */\n      dup2\n        /* \"#utility.yul\":177:201   */\n      tag_55\n      jump\t// in\n    tag_81:\n        /* \"#utility.yul\":172:175   */\n      dup3\n        /* \"#utility.yul\":165:202   */\n      mstore\n        /* \"#utility.yul\":90:208   */\n      pop\n      pop\n      jump\t// out\n        /* \"#utility.yul\":214:436   */\n    tag_11:\n        /* \"#utility.yul\":307:311   */\n      0x00\n        /* \"#utility.yul\":345:347   */\n      0x20\n        /* \"#utility.yul\":334:343   */\n      dup3\n        /* \"#utility.yul\":330:348   */\n      add\n        /* \"#utility.yul\":322:348   */\n      swap1\n      pop\n        /* \"#utility.yul\":358:429   */\n      tag_83\n        /* \"#utility.yul\":426:427   */\n      0x00\n        /* \"#utility.yul\":415:424   */\n      dup4\n        /* \"#utility.yul\":411:428   */\n      add\n        /* \"#utility.yul\":402:408   */\n      dup5\n        /* \"#utility.yul\":358:429   */\n      tag_56\n      jump\t// in\n    tag_83:\n        /* \"#utility.yul\":214:436   */\n      swap3\n      swap2\n      pop\n      pop\n      jump\t// out\n        /* \"#utility.yul\":523:640   */\n    tag_58:\n        /* \"#utility.yul\":632:633   */\n      0x00\n        /* \"#utility.yul\":629:630   */\n      dup1\n        /* \"#utility.yul\":622:634   */\n      revert\n        /* \"#utility.yul\":769:895   */\n    tag_60:\n        /* \"#utility.yul\":806:813   */\n      0x00\n        /* \"#utility.yul\":846:888   */\n      0xffffffffffffffffffffffffffffffffffffffff\n        /* \"#utility.yul\":839:844   */\n      dup3\n        /* \"#utility.yul\":835:889   */\n      and\n        /* \"#utility.yul\":824:889   */\n      swap1\n      pop\n        /* \"#utility.yul\":769:895   */\n      swap2\n      swap1\n      pop\n      jump\t// out\n        /* \"#utility.yul\":901:997   */\n    tag_61:\n        /* \"#utility.yul\":938:945   */\n      0x00\n        /* \"#utility.yul\":967:991   */\n      tag_89\n        /* \"#utility.yul\":985:990   */\n      dup3\n        /* \"#utility.yul\":967:991   */\n      tag_60\n      jump\t// in\n    tag_89:\n        /* \"#utility.yul\":956:991   */\n      swap1\n      pop\n        /* \"#utility.yul\":901:997   */\n      swap2\n      swap1\n      pop\n      jump\t// out\n        /* \"#utility.yul\":1003:1125   */\n    tag_62:\n        /* \"#utility.yul\":1076:1100   */\n      tag_91\n        /* \"#utility.yul\":1094:1099   */\n      dup2\n        /* \"#utility.yul\":1076:1100   */\n      tag_61\n      jump\t// in\n    tag_91:\n        /* \"#utility.yul\":1069:1074   */\n      dup2\n        /* \"#utility.yul\":1066:1101   */\n      eq\n        /* \"#utility.yul\":1056:1119   */\n      tag_92\n      jumpi\n        /* \"#utility.yul\":1115:1116   */\n      0x00\n        /* \"#utility.yul\":1112:1113   */\n      dup1\n        /* \"#utility.yul\":1105:1117   */\n      revert\n        /* \"#utility.yul\":1056:1119   */\n    tag_92:\n        /* \"#utility.yul\":1003:1125   */\n      pop\n      jump\t// out\n        /* \"#utility.yul\":1131:1270   */\n    tag_63:\n        /* \"#utility.yul\":1177:1182   */\n      0x00\n        /* \"#utility.yul\":1215:1221   */\n      dup2\n        /* \"#utility.yul\":1202:1222   */\n      calldataload\n        /* \"#utility.yul\":1193:1222   */\n      swap1\n      pop\n        /* \"#utility.yul\":1231:1264   */\n      tag_94\n        /* \"#utility.yul\":1258:1263   */\n      dup2\n        /* \"#utility.yul\":1231:1264   */\n      tag_62\n      jump\t// in\n    tag_94:\n        /* \"#utility.yul\":1131:1270   */\n      swap3\n      swap2\n      pop\n      pop\n      jump\t// out\n        /* \"#utility.yul\":1276:1605   */\n    tag_15:\n        /* \"#utility.yul\":1335:1341   */\n      0x00\n        /* \"#utility.yul\":1384:1386   */\n      0x20\n        /* \"#utility.yul\":1372:1381   */\n      dup3\n        /* \"#utility.yul\":1363:1370   */\n      dup5\n        /* \"#utility.yul\":1359:1382   */\n      sub\n        /* \"#utility.yul\":1355:1387   */\n      slt\n        /* \"#utility.yul\":1352:1471   */\n      iszero\n      tag_96\n      jumpi\n        /* \"#utility.yul\":1390:1469   */\n      tag_97\n      tag_58\n      jump\t// in\n    tag_97:\n        /* \"#utility.yul\":1352:1471   */\n    tag_96:\n        /* \"#utility.yul\":1510:1511   */\n      0x00\n        /* \"#utility.yul\":1535:1588   */\n      tag_98\n        /* \"#utility.yul\":1580:1587   */\n      dup5\n        /* \"#utility.yul\":1571:1577   */\n      dup3\n        /* \"#utility.yul\":1560:1569   */\n      dup6\n        /* \"#utility.yul\":1556:1578   */\n      add\n        /* \"#utility.yul\":1535:1588   */\n      tag_63\n      jump\t// in\n    tag_98:\n        /* \"#utility.yul\":1525:1588   */\n      swap2\n      pop\n        /* \"#utility.yul\":1481:1598   */\n      pop\n        /* \"#utility.yul\":1276:1605   */\n      swap3\n      swap2\n      pop\n      pop\n      jump\t// out\n        /* \"#utility.yul\":1611:1733   */\n    tag_64:\n        /* \"#utility.yul\":1684:1708   */\n      tag_100\n        /* \"#utility.yul\":1702:1707   */\n      dup2\n        /* \"#utility.yul\":1684:1708   */\n      tag_55\n      jump\t// in\n    tag_100:\n        /* \"#utility.yul\":1677:1682   */\n      dup2\n        /* \"#utility.yul\":1674:1709   */\n      eq\n        /* \"#utility.yul\":1664:1727   */\n      tag_101\n      jumpi\n        /* \"#utility.yul\":1723:1724   */\n      0x00\n        /* \"#utility.yul\":1720:1721   */\n      dup1\n        /* \"#utility.yul\":1713:1725   */\n      revert\n        /* \"#utility.yul\":1664:1727   */\n    tag_101:\n        /* \"#utility.yul\":1611:1733   */\n      pop\n      jump\t// out\n        /* \"#utility.yul\":1739:1878   */\n    tag_65:\n        /* \"#utility.yul\":1785:1790   */\n      0x00\n        /* \"#utility.yul\":1823:1829   */\n      dup2\n        /* \"#utility.yul\":1810:1830   */\n      calldataload\n        /* \"#utility.yul\":1801:1830   */\n      swap1\n      pop\n        /* \"#utility.yul\":1839:1872   */\n      tag_103\n        /* \"#utility.yul\":1866:1871   */\n      dup2\n        /* \"#utility.yul\":1839:1872   */\n      tag_64\n      jump\t// in\n    tag_103:\n        /* \"#utility.yul\":1739:1878   */\n      swap3\n      swap2\n      pop\n      pop\n      jump\t// out\n        /* \"#utility.yul\":1884:2213   */\n    tag_21:\n        /* \"#utility.yul\":1943:1949   */\n      0x00\n        /* \"#utility.yul\":1992:1994   */\n      0x20\n        /* \"#utility.yul\":1980:1989   */\n      dup3\n        /* \"#utility.yul\":1971:1978   */\n      dup5\n        /* \"#utility.yul\":1967:1990   */\n      sub\n        /* \"#utility.yul\":1963:1995   */\n      slt\n        /* \"#utility.yul\":1960:2079   */\n      iszero\n      tag_105\n      jumpi\n        /* \"#utility.yul\":1998:2077   */\n      tag_106\n      tag_58\n      jump\t// in\n    tag_106:\n        /* \"#utility.yul\":1960:2079   */\n    tag_105:\n        /* \"#utility.yul\":2118:2119   */\n      0x00\n        /* \"#utility.yul\":2143:2196   */\n      tag_107\n        /* \"#utility.yul\":2188:2195   */\n      dup5\n        /* \"#utility.yul\":2179:2185   */\n      dup3\n        /* \"#utility.yul\":2168:2177   */\n      dup6\n        /* \"#utility.yul\":2164:2186   */\n      add\n        /* \"#utility.yul\":2143:2196   */\n      tag_65\n      jump\t// in\n    tag_107:\n        /* \"#utility.yul\":2133:2196   */\n      swap2\n      pop\n        /* \"#utility.yul\":2089:2206   */\n      pop\n        /* \"#utility.yul\":1884:2213   */\n      swap3\n      swap2\n      pop\n      pop\n      jump\t// out\n        /* \"#utility.yul\":2219:2362   */\n    tag_66:\n        /* \"#utility.yul\":2276:2281   */\n      0x00\n        /* \"#utility.yul\":2307:2313   */\n      dup2\n        /* \"#utility.yul\":2301:2314   */\n      mload\n        /* \"#utility.yul\":2292:2314   */\n      swap1\n      pop\n        /* \"#utility.yul\":2323:2356   */\n      tag_109\n        /* \"#utility.yul\":2350:2355   */\n      dup2\n        /* \"#utility.yul\":2323:2356   */\n      tag_64\n      jump\t// in\n    tag_109:\n        /* \"#utility.yul\":2219:2362   */\n      swap3\n      swap2\n      pop\n      pop\n      jump\t// out\n        /* \"#utility.yul\":2368:2719   */\n    tag_34:\n        /* \"#utility.yul\":2438:2444   */\n      0x00\n        /* \"#utility.yul\":2487:2489   */\n      0x20\n        /* \"#utility.yul\":2475:2484   */\n      dup3\n        /* \"#utility.yul\":2466:2473   */\n      dup5\n        /* \"#utility.yul\":2462:2485   */\n      sub\n        /* \"#utility.yul\":2458:2490   */\n      slt\n        /* \"#utility.yul\":2455:2574   */\n      iszero\n      tag_111\n      jumpi\n        /* \"#utility.yul\":2493:2572   */\n      tag_112\n      tag_58\n      jump\t// in\n    tag_112:\n        /* \"#utility.yul\":2455:2574   */\n    tag_111:\n        /* \"#utility.yul\":2613:2614   */\n      0x00\n        /* \"#utility.yul\":2638:2702   */\n      tag_113\n        /* \"#utility.yul\":2694:2701   */\n      dup5\n        /* \"#utility.yul\":2685:2691   */\n      dup3\n        /* \"#utility.yul\":2674:2683   */\n      dup6\n        /* \"#utility.yul\":2670:2692   */\n      add\n        /* \"#utility.yul\":2638:2702   */\n      tag_66\n      jump\t// in\n    tag_113:\n        /* \"#utility.yul\":2628:2702   */\n      swap2\n      pop\n        /* \"#utility.yul\":2584:2712   */\n      pop\n        /* \"#utility.yul\":2368:2719   */\n      swap3\n      swap2\n      pop\n      pop\n      jump\t// out\n        /* \"#utility.yul\":2725:2905   */\n    tag_67:\n        /* \"#utility.yul\":2773:2850   */\n      0x4e487b7100000000000000000000000000000000000000000000000000000000\n        /* \"#utility.yul\":2770:2771   */\n      0x00\n        /* \"#utility.yul\":2763:2851   */\n      mstore\n        /* \"#utility.yul\":2870:2874   */\n      0x11\n        /* \"#utility.yul\":2867:2868   */\n      0x04\n        /* \"#utility.yul\":2860:2875   */\n      mstore\n        /* \"#utility.yul\":2894:2898   */\n      0x24\n        /* \"#utility.yul\":2891:2892   */\n      0x00\n        /* \"#utility.yul\":2884:2899   */\n      revert\n        /* \"#utility.yul\":2911:3259   */\n    tag_38:\n        /* \"#utility.yul\":2951:2958   */\n      0x00\n        /* \"#utility.yul\":2974:2994   */\n      tag_116\n        /* \"#utility.yul\":2992:2993   */\n      dup3\n        /* \"#utility.yul\":2974:2994   */\n      tag_55\n      jump\t// in\n    tag_116:\n        /* \"#utility.yul\":2969:2994   */\n      swap2\n      pop\n        /* \"#utility.yul\":3008:3028   */\n      tag_117\n        /* \"#utility.yul\":3026:3027   */\n      dup4\n        /* \"#utility.yul\":3008:3028   */\n      tag_55\n      jump\t// in\n    tag_117:\n        /* \"#utility.yul\":3003:3028   */\n      swap3\n      pop\n        /* \"#utility.yul\":3196:3197   */\n      dup2\n        /* \"#utility.yul\":3128:3194   */\n      0xffffffffffffffffffffffffffffffffffffffffffffffffffffffffffffffff\n        /* \"#utility.yul\":3124:3198   */\n      div\n        /* \"#utility.yul\":3121:3122   */\n      dup4\n        /* \"#utility.yul\":3118:3199   */\n      gt\n        /* \"#utility.yul\":3113:3114   */\n      dup3\n        /* \"#utility.yul\":3106:3115   */\n      iszero\n        /* \"#utility.yul\":3099:3116   */\n      iszero\n        /* \"#utility.yul\":3095:3200   */\n      and\n        /* \"#utility.yul\":3092:3223   */\n      iszero\n      tag_118\n      jumpi\n        /* \"#utility.yul\":3203:3221   */\n      tag_119\n      tag_67\n      jump\t// in\n    tag_119:\n        /* \"#utility.yul\":3092:3223   */\n    tag_118:\n        /* \"#utility.yul\":3251:3252   */\n      dup3\n        /* \"#utility.yul\":3248:3249   */\n      dup3\n        /* \"#utility.yul\":3244:3253   */\n      mul\n        /* \"#utility.yul\":3233:3253   */\n      swap1\n      pop\n        /* \"#utility.yul\":2911:3259   */\n      swap3\n      swap2\n      pop\n      pop\n      jump\t// out\n        /* \"#utility.yul\":3265:3445   */\n    tag_68:\n        /* \"#utility.yul\":3313:3390   */\n      0x4e487b7100000000000000000000000000000000000000000000000000000000\n        /* \"#utility.yul\":3310:3311   */\n      0x00\n        /* \"#utility.yul\":3303:3391   */\n      mstore\n        /* \"#utility.yul\":3410:3414   */\n      0x12\n        /* \"#utility.yul\":3407:3408   */\n      0x04\n        /* \"#utility.yul\":3400:3415   */\n      mstore\n        /* \"#utility.yul\":3434:3438   */\n      0x24\n        /* \"#utility.yul\":3431:3432   */\n      0x00\n        /* \"#utility.yul\":3424:3439   */\n      revert\n        /* \"#utility.yul\":3451:3636   */\n    tag_40:\n        /* \"#utility.yul\":3491:3492   */\n      0x00\n        /* \"#utility.yul\":3508:3528   */\n      tag_122\n        /* \"#utility.yul\":3526:3527   */\n      dup3\n        /* \"#utility.yul\":3508:3528   */\n      tag_55\n      jump\t// in\n    tag_122:\n        /* \"#utility.yul\":3503:3528   */\n      swap2\n      pop\n        /* \"#utility.yul\":3542:3562   */\n      tag_123\n        /* \"#utility.yul\":3560:3561   */\n      dup4\n        /* \"#utility.yul\":3542:3562   */\n      tag_55\n      jump\t// in\n    tag_123:\n        /* \"#utility.yul\":3537:3562   */\n      swap3\n      pop\n        /* \"#utility.yul\":3581:3582   */\n      dup3\n        /* \"#utility.yul\":3571:3606   */\n      tag_124\n      jumpi\n        /* \"#utility.yul\":3586:3604   */\n      tag_125\n      tag_68\n      jump\t// in\n    tag_125:\n        /* \"#utility.yul\":3571:3606   */\n    tag_124:\n        /* \"#utility.yul\":3628:3629   */\n      dup3\n        /* \"#utility.yul\":3625:3626   */\n      dup3\n        /* \"#utility.yul\":3621:3630   */\n      div\n        /* \"#utility.yul\":3616:3630   */\n      swap1\n      pop\n        /* \"#utility.yul\":3451:3636   */\n      swap3\n      swap2\n      pop\n      pop\n      jump\t// out\n        /* \"#utility.yul\":3642:3747   */\n    tag_69:\n        /* \"#utility.yul\":3678:3685   */\n      0x00\n        /* \"#utility.yul\":3718:3740   */\n      0xffffffffffffffffffff\n        /* \"#utility.yul\":3711:3716   */\n      dup3\n        /* \"#utility.yul\":3707:3741   */\n      and\n        /* \"#utility.yul\":3696:3741   */\n      swap1\n      pop\n        /* \"#utility.yul\":3642:3747   */\n      swap2\n      swap1\n      pop\n      jump\t// out\n        /* \"#utility.yul\":3753:3873   */\n    tag_70:\n        /* \"#utility.yul\":3825:3848   */\n      tag_128\n        /* \"#utility.yul\":3842:3847   */\n      dup2\n        /* \"#utility.yul\":3825:3848   */\n      tag_69\n      jump\t// in\n    tag_128:\n        /* \"#utility.yul\":3818:3823   */\n      dup2\n        /* \"#utility.yul\":3815:3849   */\n      eq\n        /* \"#utility.yul\":3805:3867   */\n      tag_129\n      jumpi\n        /* \"#utility.yul\":3863:3864   */\n      0x00\n        /* \"#utility.yul\":3860:3861   */\n      dup1\n        /* \"#utility.yul\":3853:3865   */\n      revert\n        /* \"#utility.yul\":3805:3867   */\n    tag_129:\n        /* \"#utility.yul\":3753:3873   */\n      pop\n      jump\t// out\n        /* \"#utility.yul\":3879:4020   */\n    tag_71:\n        /* \"#utility.yul\":3935:3940   */\n      0x00\n        /* \"#utility.yul\":3966:3972   */\n      dup2\n        /* \"#utility.yul\":3960:3973   */\n      mload\n        /* \"#utility.yul\":3951:3973   */\n      swap1\n      pop\n        /* \"#utility.yul\":3982:4014   */\n      tag_131\n        /* \"#utility.yul\":4008:4013   */\n      dup2\n        /* \"#utility.yul\":3982:4014   */\n      tag_70\n      jump\t// in\n    tag_131:\n        /* \"#utility.yul\":3879:4020   */\n      swap3\n      swap2\n      pop\n      pop\n      jump\t// out\n        /* \"#utility.yul\":4026:4102   */\n    tag_72:\n        /* \"#utility.yul\":4062:4069   */\n      0x00\n        /* \"#utility.yul\":4091:4096   */\n      dup2\n        /* \"#utility.yul\":4080:4096   */\n      swap1\n      pop\n        /* \"#utility.yul\":4026:4102   */\n      swap2\n      swap1\n      pop\n      jump\t// out\n        /* \"#utility.yul\":4108:4228   */\n    tag_73:\n        /* \"#utility.yul\":4180:4203   */\n      tag_134\n        /* \"#utility.yul\":4197:4202   */\n      dup2\n        /* \"#utility.yul\":4180:4203   */\n      tag_72\n      jump\t// in\n    tag_134:\n        /* \"#utility.yul\":4173:4178   */\n      dup2\n        /* \"#utility.yul\":4170:4204   */\n      eq\n        /* \"#utility.yul\":4160:4222   */\n      tag_135\n      jumpi\n        /* \"#utility.yul\":4218:4219   */\n      0x00\n        /* \"#utility.yul\":4215:4216   */\n      dup1\n        /* \"#utility.yul\":4208:4220   */\n      revert\n        /* \"#utility.yul\":4160:4222   */\n    tag_135:\n        /* \"#utility.yul\":4108:4228   */\n      pop\n      jump\t// out\n        /* \"#utility.yul\":4234:4375   */\n    tag_74:\n        /* \"#utility.yul\":4290:4295   */\n      0x00\n        /* \"#utility.yul\":4321:4327   */\n      dup2\n        /* \"#utility.yul\":4315:4328   */\n      mload\n        /* \"#utility.yul\":4306:4328   */\n      swap1\n      pop\n        /* \"#utility.yul\":4337:4369   */\n      tag_137\n        /* \"#utility.yul\":4363:4368   */\n      dup2\n        /* \"#utility.yul\":4337:4369   */\n      tag_73\n      jump\t// in\n    tag_137:\n        /* \"#utility.yul\":4234:4375   */\n      swap3\n      swap2\n      pop\n      pop\n      jump\t// out\n        /* \"#utility.yul\":4381:5352   */\n    tag_45:\n        /* \"#utility.yul\":4484:4490   */\n      0x00\n        /* \"#utility.yul\":4492:4498   */\n      dup1\n        /* \"#utility.yul\":4500:4506   */\n      0x00\n        /* \"#utility.yul\":4508:4514   */\n      dup1\n        /* \"#utility.yul\":4516:4522   */\n      0x00\n        /* \"#utility.yul\":4565:4568   */\n      0xa0\n        /* \"#utility.yul\":4553:4562   */\n      dup7\n        /* \"#utility.yul\":4544:4551   */\n      dup9\n        /* \"#utility.yul\":4540:4563   */\n      sub\n        /* \"#utility.yul\":4536:4569   */\n      slt\n        /* \"#utility.yul\":4533:4653   */\n      iszero\n      tag_139\n      jumpi\n        /* \"#utility.yul\":4572:4651   */\n      tag_140\n      tag_58\n      jump\t// in\n    tag_140:\n        /* \"#utility.yul\":4533:4653   */\n    tag_139:\n        /* \"#utility.yul\":4692:4693   */\n      0x00\n        /* \"#utility.yul\":4717:4780   */\n      tag_141\n        /* \"#utility.yul\":4772:4779   */\n      dup9\n        /* \"#utility.yul\":4763:4769   */\n      dup3\n        /* \"#utility.yul\":4752:4761   */\n      dup10\n        /* \"#utility.yul\":4748:4770   */\n      add\n        /* \"#utility.yul\":4717:4780   */\n      tag_71\n      jump\t// in\n    tag_141:\n        /* \"#utility.yul\":4707:4780   */\n      swap6\n      pop\n        /* \"#utility.yul\":4663:4790   */\n      pop\n        /* \"#utility.yul\":4829:4831   */\n      0x20\n        /* \"#utility.yul\":4855:4918   */\n      tag_142\n        /* \"#utility.yul\":4910:4917   */\n      dup9\n        /* \"#utility.yul\":4901:4907   */\n      dup3\n        /* \"#utility.yul\":4890:4899   */\n      dup10\n        /* \"#utility.yul\":4886:4908   */\n      add\n        /* \"#utility.yul\":4855:4918   */\n      tag_74\n      jump\t// in\n    tag_142:\n        /* \"#utility.yul\":4845:4918   */\n      swap5\n      pop\n        /* \"#utility.yul\":4800:4928   */\n      pop\n        /* \"#utility.yul\":4967:4969   */\n      0x40\n        /* \"#utility.yul\":4993:5057   */\n      tag_143\n        /* \"#utility.yul\":5049:5056   */\n      dup9\n        /* \"#utility.yul\":5040:5046   */\n      dup3\n        /* \"#utility.yul\":5029:5038   */\n      dup10\n        /* \"#utility.yul\":5025:5047   */\n      add\n        /* \"#utility.yul\":4993:5057   */\n      tag_66\n      jump\t// in\n    tag_143:\n        /* \"#utility.yul\":4983:5057   */\n      swap4\n      pop\n        /* \"#utility.yul\":4938:5067   */\n      pop\n        /* \"#utility.yul\":5106:5108   */\n      0x60\n        /* \"#utility.yul\":5132:5196   */\n      tag_144\n        /* \"#utility.yul\":5188:5195   */\n      dup9\n        /* \"#utility.yul\":5179:5185   */\n      dup3\n        /* \"#utility.yul\":5168:5177   */\n      dup10\n        /* \"#utility.yul\":5164:5186   */\n      add\n        /* \"#utility.yul\":5132:5196   */\n      tag_66\n      jump\t// in\n    tag_144:\n        /* \"#utility.yul\":5122:5196   */\n      swap3\n      pop\n        /* \"#utility.yul\":5077:5206   */\n      pop\n        /* \"#utility.yul\":5245:5248   */\n      0x80\n        /* \"#utility.yul\":5272:5335   */\n      tag_145\n        /* \"#utility.yul\":5327:5334   */\n      dup9\n        /* \"#utility.yul\":5318:5324   */\n      dup3\n        /* \"#utility.yul\":5307:5316   */\n      dup10\n        /* \"#utility.yul\":5303:5325   */\n      add\n        /* \"#utility.yul\":5272:5335   */\n      tag_71\n      jump\t// in\n    tag_145:\n        /* \"#utility.yul\":5262:5335   */\n      swap2\n      pop\n        /* \"#utility.yul\":5216:5345   */\n      pop\n        /* \"#utility.yul\":4381:5352   */\n      swap3\n      swap6\n      pop\n      swap3\n      swap6\n      swap1\n      swap4\n      pop\n      jump\t// out\n        /* \"#utility.yul\":5358:6349   */\n    tag_47:\n        /* \"#utility.yul\":5397:5404   */\n      0x00\n        /* \"#utility.yul\":5420:5439   */\n      tag_147\n        /* \"#utility.yul\":5437:5438   */\n      dup3\n        /* \"#utility.yul\":5420:5439   */\n      tag_72\n      jump\t// in\n    tag_147:\n        /* \"#utility.yul\":5415:5439   */\n      swap2\n      pop\n        /* \"#utility.yul\":5453:5472   */\n      tag_148\n        /* \"#utility.yul\":5470:5471   */\n      dup4\n        /* \"#utility.yul\":5453:5472   */\n      tag_72\n      jump\t// in\n    tag_148:\n        /* \"#utility.yul\":5448:5472   */\n      swap3\n      pop\n        /* \"#utility.yul\":5654:5655   */\n      dup3\n        /* \"#utility.yul\":5586:5652   */\n      0x7fffffffffffffffffffffffffffffffffffffffffffffffffffffffffffffff\n        /* \"#utility.yul\":5582:5656   */\n      div\n        /* \"#utility.yul\":5579:5580   */\n      dup3\n        /* \"#utility.yul\":5576:5657   */\n      gt\n        /* \"#utility.yul\":5571:5572   */\n      0x00\n        /* \"#utility.yul\":5568:5569   */\n      dup5\n        /* \"#utility.yul\":5564:5573   */\n      sgt\n        /* \"#utility.yul\":5560:5561   */\n      0x00\n        /* \"#utility.yul\":5557:5558   */\n      dup5\n        /* \"#utility.yul\":5553:5562   */\n      sgt\n        /* \"#utility.yul\":5549:5574   */\n      and\n        /* \"#utility.yul\":5545:5658   */\n      and\n        /* \"#utility.yul\":5542:5681   */\n      iszero\n      tag_149\n      jumpi\n        /* \"#utility.yul\":5661:5679   */\n      tag_150\n      tag_67\n      jump\t// in\n    tag_150:\n        /* \"#utility.yul\":5542:5681   */\n    tag_149:\n        /* \"#utility.yul\":5865:5866   */\n      dup2\n        /* \"#utility.yul\":5797:5863   */\n      0x8000000000000000000000000000000000000000000000000000000000000000\n        /* \"#utility.yul\":5792:5867   */\n      sdiv\n        /* \"#utility.yul\":5789:5790   */\n      dup4\n        /* \"#utility.yul\":5785:5868   */\n      slt\n        /* \"#utility.yul\":5780:5781   */\n      0x00\n        /* \"#utility.yul\":5777:5778   */\n      dup5\n        /* \"#utility.yul\":5773:5782   */\n      slt\n        /* \"#utility.yul\":5769:5770   */\n      0x00\n        /* \"#utility.yul\":5766:5767   */\n      dup5\n        /* \"#utility.yul\":5762:5771   */\n      sgt\n        /* \"#utility.yul\":5758:5783   */\n      and\n        /* \"#utility.yul\":5754:5869   */\n      and\n        /* \"#utility.yul\":5751:5892   */\n      iszero\n      tag_151\n      jumpi\n        /* \"#utility.yul\":5872:5890   */\n      tag_152\n      tag_67\n      jump\t// in\n    tag_152:\n        /* \"#utility.yul\":5751:5892   */\n    tag_151:\n        /* \"#utility.yul\":6076:6077   */\n      dup3\n        /* \"#utility.yul\":6008:6074   */\n      0x8000000000000000000000000000000000000000000000000000000000000000\n        /* \"#utility.yul\":6003:6078   */\n      sdiv\n        /* \"#utility.yul\":6000:6001   */\n      dup3\n        /* \"#utility.yul\":5996:6079   */\n      slt\n        /* \"#utility.yul\":5991:5992   */\n      0x00\n        /* \"#utility.yul\":5988:5989   */\n      dup5\n        /* \"#utility.yul\":5984:5993   */\n      sgt\n        /* \"#utility.yul\":5980:5981   */\n      0x00\n        /* \"#utility.yul\":5977:5978   */\n      dup5\n        /* \"#utility.yul\":5973:5982   */\n      slt\n        /* \"#utility.yul\":5969:5994   */\n      and\n        /* \"#utility.yul\":5965:6080   */\n      and\n        /* \"#utility.yul\":5962:6103   */\n      iszero\n      tag_153\n      jumpi\n        /* \"#utility.yul\":6083:6101   */\n      tag_154\n      tag_67\n      jump\t// in\n    tag_154:\n        /* \"#utility.yul\":5962:6103   */\n    tag_153:\n        /* \"#utility.yul\":6286:6287   */\n      dup3\n        /* \"#utility.yul\":6218:6284   */\n      0x7fffffffffffffffffffffffffffffffffffffffffffffffffffffffffffffff\n        /* \"#utility.yul\":6213:6288   */\n      sdiv\n        /* \"#utility.yul\":6210:6211   */\n      dup3\n        /* \"#utility.yul\":6206:6289   */\n      slt\n        /* \"#utility.yul\":6201:6202   */\n      0x00\n        /* \"#utility.yul\":6198:6199   */\n      dup5\n        /* \"#utility.yul\":6194:6203   */\n      slt\n        /* \"#utility.yul\":6190:6191   */\n      0x00\n        /* \"#utility.yul\":6187:6188   */\n      dup5\n        /* \"#utility.yul\":6183:6192   */\n      slt\n        /* \"#utility.yul\":6179:6204   */\n      and\n        /* \"#utility.yul\":6175:6290   */\n      and\n        /* \"#utility.yul\":6172:6313   */\n      iszero\n      tag_155\n      jumpi\n        /* \"#utility.yul\":6293:6311   */\n      tag_156\n      tag_67\n      jump\t// in\n    tag_156:\n        /* \"#utility.yul\":6172:6313   */\n    tag_155:\n        /* \"#utility.yul\":6341:6342   */\n      dup3\n        /* \"#utility.yul\":6338:6339   */\n      dup3\n        /* \"#utility.yul\":6334:6343   */\n      mul\n        /* \"#utility.yul\":6323:6343   */\n      swap1\n      pop\n        /* \"#utility.yul\":5358:6349   */\n      swap3\n      swap2\n      pop\n      pop\n      jump\t// out\n        /* \"#utility.yul\":6355:6660   */\n    tag_50:\n        /* \"#utility.yul\":6395:6398   */\n      0x00\n        /* \"#utility.yul\":6414:6434   */\n      tag_158\n        /* \"#utility.yul\":6432:6433   */\n      dup3\n        /* \"#utility.yul\":6414:6434   */\n      tag_55\n      jump\t// in\n    tag_158:\n        /* \"#utility.yul\":6409:6434   */\n      swap2\n      pop\n        /* \"#utility.yul\":6448:6468   */\n      tag_159\n        /* \"#utility.yul\":6466:6467   */\n      dup4\n        /* \"#utility.yul\":6448:6468   */\n      tag_55\n      jump\t// in\n    tag_159:\n        /* \"#utility.yul\":6443:6468   */\n      swap3\n      pop\n        /* \"#utility.yul\":6602:6603   */\n      dup3\n        /* \"#utility.yul\":6534:6600   */\n      0xffffffffffffffffffffffffffffffffffffffffffffffffffffffffffffffff\n        /* \"#utility.yul\":6530:6604   */\n      sub\n        /* \"#utility.yul\":6527:6528   */\n      dup3\n        /* \"#utility.yul\":6524:6605   */\n      gt\n        /* \"#utility.yul\":6521:6628   */\n      iszero\n      tag_160\n      jumpi\n        /* \"#utility.yul\":6608:6626   */\n      tag_161\n      tag_67\n      jump\t// in\n    tag_161:\n        /* \"#utility.yul\":6521:6628   */\n    tag_160:\n        /* \"#utility.yul\":6652:6653   */\n      dup3\n        /* \"#utility.yul\":6649:6650   */\n      dup3\n        /* \"#utility.yul\":6645:6654   */\n      add\n        /* \"#utility.yul\":6638:6654   */\n      swap1\n      pop\n        /* \"#utility.yul\":6355:6660   */\n      swap3\n      swap2\n      pop\n      pop\n      jump\t// out\n        /* \"#utility.yul\":6666:6835   */\n    tag_75:\n        /* \"#utility.yul\":6750:6761   */\n      0x00\n        /* \"#utility.yul\":6784:6790   */\n      dup3\n        /* \"#utility.yul\":6779:6782   */\n      dup3\n        /* \"#utility.yul\":6772:6791   */\n      mstore\n        /* \"#utility.yul\":6824:6828   */\n      0x20\n        /* \"#utility.yul\":6819:6822   */\n      dup3\n        /* \"#utility.yul\":6815:6829   */\n      add\n        /* \"#utility.yul\":6800:6829   */\n      swap1\n      pop\n        /* \"#utility.yul\":6666:6835   */\n      swap3\n      swap2\n      pop\n      pop\n      jump\t// out\n        /* \"#utility.yul\":6841:7082   */\n    tag_76:\n        /* \"#utility.yul\":6981:7015   */\n      0x596f75206e65656420746f207370656e64206d6f726520455448212c20697420\n        /* \"#utility.yul\":6977:6978   */\n      0x00\n        /* \"#utility.yul\":6969:6975   */\n      dup3\n        /* \"#utility.yul\":6965:6979   */\n      add\n        /* \"#utility.yul\":6958:7016   */\n      mstore\n        /* \"#utility.yul\":7050:7074   */\n      0x73686f756c64206265206d6f7265207468616e20353000000000000000000000\n        /* \"#utility.yul\":7045:7047   */\n      0x20\n        /* \"#utility.yul\":7037:7043   */\n      dup3\n        /* \"#utility.yul\":7033:7048   */\n      add\n        /* \"#utility.yul\":7026:7075   */\n      mstore\n        /* \"#utility.yul\":6841:7082   */\n      pop\n      jump\t// out\n        /* \"#utility.yul\":7088:7454   */\n    tag_77:\n        /* \"#utility.yul\":7230:7233   */\n      0x00\n        /* \"#utility.yul\":7251:7318   */\n      tag_165\n        /* \"#utility.yul\":7315:7317   */\n      0x36\n        /* \"#utility.yul\":7310:7313   */\n      dup4\n        /* \"#utility.yul\":7251:7318   */\n      tag_75\n      jump\t// in\n    tag_165:\n        /* \"#utility.yul\":7244:7318   */\n      swap2\n      pop\n        /* \"#utility.yul\":7327:7420   */\n      tag_166\n        /* \"#utility.yul\":7416:7419   */\n      dup3\n        /* \"#utility.yul\":7327:7420   */\n      tag_76\n      jump\t// in\n    tag_166:\n        /* \"#utility.yul\":7445:7447   */\n      0x40\n        /* \"#utility.yul\":7440:7443   */\n      dup3\n        /* \"#utility.yul\":7436:7448   */\n      add\n        /* \"#utility.yul\":7429:7448   */\n      swap1\n      pop\n        /* \"#utility.yul\":7088:7454   */\n      swap2\n      swap1\n      pop\n      jump\t// out\n        /* \"#utility.yul\":7460:7879   */\n    tag_54:\n        /* \"#utility.yul\":7626:7630   */\n      0x00\n        /* \"#utility.yul\":7664:7666   */\n      0x20\n        /* \"#utility.yul\":7653:7662   */\n      dup3\n        /* \"#utility.yul\":7649:7667   */\n      add\n        /* \"#utility.yul\":7641:7667   */\n      swap1\n      pop\n        /* \"#utility.yul\":7713:7722   */\n      dup2\n        /* \"#utility.yul\":7707:7711   */\n      dup2\n        /* \"#utility.yul\":7703:7723   */\n      sub\n        /* \"#utility.yul\":7699:7700   */\n      0x00\n        /* \"#utility.yul\":7688:7697   */\n      dup4\n        /* \"#utility.yul\":7684:7701   */\n      add\n        /* \"#utility.yul\":7677:7724   */\n      mstore\n        /* \"#utility.yul\":7741:7872   */\n      tag_168\n        /* \"#utility.yul\":7867:7871   */\n      dup2\n        /* \"#utility.yul\":7741:7872   */\n      tag_77\n      jump\t// in\n    tag_168:\n        /* \"#utility.yul\":7733:7872   */\n      swap1\n      pop\n        /* \"#utility.yul\":7460:7879   */\n      swap2\n      swap1\n      pop\n      jump\t// out\n\n    auxdata: 0xa264697066735822122061a2af52168562dba623fadd1b80ae8c798a18542661e798ad1b989fee4e1abb64736f6c634300080d0033\n}\n",
				"bytecode": {
					"linkReferences": {},
					"object": "608060405234801561001057600080fd5b506108e5806100206000396000f3fe60806040526004361061004a5760003560e01c80630d8e6e2c1461004f5780633e47d6f31461007a5780636e5b6b28146100b757806398d5fdca146100f4578063b60d42881461011f575b600080fd5b34801561005b57600080fd5b50610064610129565b604051610071919061037d565b60405180910390f35b34801561008657600080fd5b506100a1600480360381019061009c91906103fb565b6101b8565b6040516100ae919061037d565b60405180910390f35b3480156100c357600080fd5b506100de60048036038101906100d99190610454565b6101d0565b6040516100eb919061037d565b60405180910390f35b34801561010057600080fd5b5061010961020a565b604051610116919061037d565b60405180910390f35b6101276102b3565b005b600080738a753747a1fa494ec906ce90e9f37563a8af630e90508073ffffffffffffffffffffffffffffffffffffffff166354fd4d506040518163ffffffff1660e01b8152600401602060405180830381865afa15801561018e573d6000803e3d6000fd5b505050506040513d601f19601f820116820180604052508101906101b29190610496565b91505090565b60006020528060005260406000206000915090505481565b6000806101db61020a565b90506000670de0b6b3a764000084836101f491906104f2565b6101fe919061057b565b90508092505050919050565b600080738a753747a1fa494ec906ce90e9f37563a8af630e905060008173ffffffffffffffffffffffffffffffffffffffff1663feaf968c6040518163ffffffff1660e01b815260040160a060405180830381865afa158015610271573d6000803e3d6000fd5b505050506040513d601f19601f820116820180604052508101906102959190610624565b5050509150506402540be400816102ac919061069f565b9250505090565b346000803373ffffffffffffffffffffffffffffffffffffffff1673ffffffffffffffffffffffffffffffffffffffff168152602001908152602001600020600082825461030191906107b6565b9250508190555060006802b5e3af16b1880000905080610320346101d0565b1015610361576040517f08c379a00000000000000000000000000000000000000000000000000000000081526004016103589061088f565b60405180910390fd5b50565b6000819050919050565b61037781610364565b82525050565b6000602082019050610392600083018461036e565b92915050565b600080fd5b600073ffffffffffffffffffffffffffffffffffffffff82169050919050565b60006103c88261039d565b9050919050565b6103d8816103bd565b81146103e357600080fd5b50565b6000813590506103f5816103cf565b92915050565b60006020828403121561041157610410610398565b5b600061041f848285016103e6565b91505092915050565b61043181610364565b811461043c57600080fd5b50565b60008135905061044e81610428565b92915050565b60006020828403121561046a57610469610398565b5b60006104788482850161043f565b91505092915050565b60008151905061049081610428565b92915050565b6000602082840312156104ac576104ab610398565b5b60006104ba84828501610481565b91505092915050565b7f4e487b7100000000000000000000000000000000000000000000000000000000600052601160045260246000fd5b60006104fd82610364565b915061050883610364565b9250817fffffffffffffffffffffffffffffffffffffffffffffffffffffffffffffffff0483118215151615610541576105406104c3565b5b828202905092915050565b7f4e487b7100000000000000000000000000000000000000000000000000000000600052601260045260246000fd5b600061058682610364565b915061059183610364565b9250826105a1576105a061054c565b5b828204905092915050565b600069ffffffffffffffffffff82169050919050565b6105cb816105ac565b81146105d657600080fd5b50565b6000815190506105e8816105c2565b92915050565b6000819050919050565b610601816105ee565b811461060c57600080fd5b50565b60008151905061061e816105f8565b92915050565b600080600080600060a086880312156106405761063f610398565b5b600061064e888289016105d9565b955050602061065f8882890161060f565b945050604061067088828901610481565b935050606061068188828901610481565b9250506080610692888289016105d9565b9150509295509295909350565b60006106aa826105ee565b91506106b5836105ee565b9250827f7fffffffffffffffffffffffffffffffffffffffffffffffffffffffffffffff04821160008413600084131616156106f4576106f36104c3565b5b817f80000000000000000000000000000000000000000000000000000000000000000583126000841260008413161615610731576107306104c3565b5b827f8000000000000000000000000000000000000000000000000000000000000000058212600084136000841216161561076e5761076d6104c3565b5b827f7fffffffffffffffffffffffffffffffffffffffffffffffffffffffffffffff05821260008412600084121616156107ab576107aa6104c3565b5b828202905092915050565b60006107c182610364565b91506107cc83610364565b9250827fffffffffffffffffffffffffffffffffffffffffffffffffffffffffffffffff03821115610801576108006104c3565b5b828201905092915050565b600082825260208201905092915050565b7f596f75206e65656420746f207370656e64206d6f726520455448212c2069742060008201527f73686f756c64206265206d6f7265207468616e20353000000000000000000000602082015250565b600061087960368361080c565b91506108848261081d565b604082019050919050565b600060208201905081810360008301526108a88161086c565b905091905056fea264697066735822122061a2af52168562dba623fadd1b80ae8c798a18542661e798ad1b989fee4e1abb64736f6c634300080d0033",
					"opcodes": "PUSH1 0x80 PUSH1 0x40 MSTORE CALLVALUE DUP1 ISZERO PUSH2 0x10 JUMPI PUSH1 0x0 DUP1 REVERT JUMPDEST POP PUSH2 0x8E5 DUP1 PUSH2 0x20 PUSH1 0x0 CODECOPY PUSH1 0x0 RETURN INVALID PUSH1 0x80 PUSH1 0x40 MSTORE PUSH1 0x4 CALLDATASIZE LT PUSH2 0x4A JUMPI PUSH1 0x0 CALLDATALOAD PUSH1 0xE0 SHR DUP1 PUSH4 0xD8E6E2C EQ PUSH2 0x4F JUMPI DUP1 PUSH4 0x3E47D6F3 EQ PUSH2 0x7A JUMPI DUP1 PUSH4 0x6E5B6B28 EQ PUSH2 0xB7 JUMPI DUP1 PUSH4 0x98D5FDCA EQ PUSH2 0xF4 JUMPI DUP1 PUSH4 0xB60D4288 EQ PUSH2 0x11F JUMPI JUMPDEST PUSH1 0x0 DUP1 REVERT JUMPDEST CALLVALUE DUP1 ISZERO PUSH2 0x5B JUMPI PUSH1 0x0 DUP1 REVERT JUMPDEST POP PUSH2 0x64 PUSH2 0x129 JUMP JUMPDEST PUSH1 0x40 MLOAD PUSH2 0x71 SWAP2 SWAP1 PUSH2 0x37D JUMP JUMPDEST PUSH1 0x40 MLOAD DUP1 SWAP2 SUB SWAP1 RETURN JUMPDEST CALLVALUE DUP1 ISZERO PUSH2 0x86 JUMPI PUSH1 0x0 DUP1 REVERT JUMPDEST POP PUSH2 0xA1 PUSH1 0x4 DUP1 CALLDATASIZE SUB DUP2 ADD SWAP1 PUSH2 0x9C SWAP2 SWAP1 PUSH2 0x3FB JUMP JUMPDEST PUSH2 0x1B8 JUMP JUMPDEST PUSH1 0x40 MLOAD PUSH2 0xAE SWAP2 SWAP1 PUSH2 0x37D JUMP JUMPDEST PUSH1 0x40 MLOAD DUP1 SWAP2 SUB SWAP1 RETURN JUMPDEST CALLVALUE DUP1 ISZERO PUSH2 0xC3 JUMPI PUSH1 0x0 DUP1 REVERT JUMPDEST POP PUSH2 0xDE PUSH1 0x4 DUP1 CALLDATASIZE SUB DUP2 ADD SWAP1 PUSH2 0xD9 SWAP2 SWAP1 PUSH2 0x454 JUMP JUMPDEST PUSH2 0x1D0 JUMP JUMPDEST PUSH1 0x40 MLOAD PUSH2 0xEB SWAP2 SWAP1 PUSH2 0x37D JUMP JUMPDEST PUSH1 0x40 MLOAD DUP1 SWAP2 SUB SWAP1 RETURN JUMPDEST CALLVALUE DUP1 ISZERO PUSH2 0x100 JUMPI PUSH1 0x0 DUP1 REVERT JUMPDEST POP PUSH2 0x109 PUSH2 0x20A JUMP JUMPDEST PUSH1 0x40 MLOAD PUSH2 0x116 SWAP2 SWAP1 PUSH2 0x37D JUMP JUMPDEST PUSH1 0x40 MLOAD DUP1 SWAP2 SUB SWAP1 RETURN JUMPDEST PUSH2 0x127 PUSH2 0x2B3 JUMP JUMPDEST STOP JUMPDEST PUSH1 0x0 DUP1 PUSH20 0x8A753747A1FA494EC906CE90E9F37563A8AF630E SWAP1 POP DUP1 PUSH20 0xFFFFFFFFFFFFFFFFFFFFFFFFFFFFFFFFFFFFFFFF AND PUSH4 0x54FD4D50 PUSH1 0x40 MLOAD DUP2 PUSH4 0xFFFFFFFF AND PUSH1 0xE0 SHL DUP2 MSTORE PUSH1 0x4 ADD PUSH1 0x20 PUSH1 0x40 MLOAD DUP1 DUP4 SUB DUP2 DUP7 GAS STATICCALL ISZERO DUP1 ISZERO PUSH2 0x18E JUMPI RETURNDATASIZE PUSH1 0x0 DUP1 RETURNDATACOPY RETURNDATASIZE PUSH1 0x0 REVERT JUMPDEST POP POP POP POP PUSH1 0x40 MLOAD RETURNDATASIZE PUSH1 0x1F NOT PUSH1 0x1F DUP3 ADD AND DUP3 ADD DUP1 PUSH1 0x40 MSTORE POP DUP2 ADD SWAP1 PUSH2 0x1B2 SWAP2 SWAP1 PUSH2 0x496 JUMP JUMPDEST SWAP2 POP POP SWAP1 JUMP JUMPDEST PUSH1 0x0 PUSH1 0x20 MSTORE DUP1 PUSH1 0x0 MSTORE PUSH1 0x40 PUSH1 0x0 KECCAK256 PUSH1 0x0 SWAP2 POP SWAP1 POP SLOAD DUP2 JUMP JUMPDEST PUSH1 0x0 DUP1 PUSH2 0x1DB PUSH2 0x20A JUMP JUMPDEST SWAP1 POP PUSH1 0x0 PUSH8 0xDE0B6B3A7640000 DUP5 DUP4 PUSH2 0x1F4 SWAP2 SWAP1 PUSH2 0x4F2 JUMP JUMPDEST PUSH2 0x1FE SWAP2 SWAP1 PUSH2 0x57B JUMP JUMPDEST SWAP1 POP DUP1 SWAP3 POP POP POP SWAP2 SWAP1 POP JUMP JUMPDEST PUSH1 0x0 DUP1 PUSH20 0x8A753747A1FA494EC906CE90E9F37563A8AF630E SWAP1 POP PUSH1 0x0 DUP2 PUSH20 0xFFFFFFFFFFFFFFFFFFFFFFFFFFFFFFFFFFFFFFFF AND PUSH4 0xFEAF968C PUSH1 0x40 MLOAD DUP2 PUSH4 0xFFFFFFFF AND PUSH1 0xE0 SHL DUP2 MSTORE PUSH1 0x4 ADD PUSH1 0xA0 PUSH1 0x40 MLOAD DUP1 DUP4 SUB DUP2 DUP7 GAS STATICCALL ISZERO DUP1 ISZERO PUSH2 0x271 JUMPI RETURNDATASIZE PUSH1 0x0 DUP1 RETURNDATACOPY RETURNDATASIZE PUSH1 0x0 REVERT JUMPDEST POP POP POP POP PUSH1 0x40 MLOAD RETURNDATASIZE PUSH1 0x1F NOT PUSH1 0x1F DUP3 ADD AND DUP3 ADD DUP1 PUSH1 0x40 MSTORE POP DUP2 ADD SWAP1 PUSH2 0x295 SWAP2 SWAP1 PUSH2 0x624 JUMP JUMPDEST POP POP POP SWAP2 POP POP PUSH5 0x2540BE400 DUP2 PUSH2 0x2AC SWAP2 SWAP1 PUSH2 0x69F JUMP JUMPDEST SWAP3 POP POP POP SWAP1 JUMP JUMPDEST CALLVALUE PUSH1 0x0 DUP1 CALLER PUSH20 0xFFFFFFFFFFFFFFFFFFFFFFFFFFFFFFFFFFFFFFFF AND PUSH20 0xFFFFFFFFFFFFFFFFFFFFFFFFFFFFFFFFFFFFFFFF AND DUP2 MSTORE PUSH1 0x20 ADD SWAP1 DUP2 MSTORE PUSH1 0x20 ADD PUSH1 0x0 KECCAK256 PUSH1 0x0 DUP3 DUP3 SLOAD PUSH2 0x301 SWAP2 SWAP1 PUSH2 0x7B6 JUMP JUMPDEST SWAP3 POP POP DUP2 SWAP1 SSTORE POP PUSH1 0x0 PUSH9 0x2B5E3AF16B1880000 SWAP1 POP DUP1 PUSH2 0x320 CALLVALUE PUSH2 0x1D0 JUMP JUMPDEST LT ISZERO PUSH2 0x361 JUMPI PUSH1 0x40 MLOAD PUSH32 0x8C379A000000000000000000000000000000000000000000000000000000000 DUP2 MSTORE PUSH1 0x4 ADD PUSH2 0x358 SWAP1 PUSH2 0x88F JUMP JUMPDEST PUSH1 0x40 MLOAD DUP1 SWAP2 SUB SWAP1 REVERT JUMPDEST POP JUMP JUMPDEST PUSH1 0x0 DUP2 SWAP1 POP SWAP2 SWAP1 POP JUMP JUMPDEST PUSH2 0x377 DUP2 PUSH2 0x364 JUMP JUMPDEST DUP3 MSTORE POP POP JUMP JUMPDEST PUSH1 0x0 PUSH1 0x20 DUP3 ADD SWAP1 POP PUSH2 0x392 PUSH1 0x0 DUP4 ADD DUP5 PUSH2 0x36E JUMP JUMPDEST SWAP3 SWAP2 POP POP JUMP JUMPDEST PUSH1 0x0 DUP1 REVERT JUMPDEST PUSH1 0x0 PUSH20 0xFFFFFFFFFFFFFFFFFFFFFFFFFFFFFFFFFFFFFFFF DUP3 AND SWAP1 POP SWAP2 SWAP1 POP JUMP JUMPDEST PUSH1 0x0 PUSH2 0x3C8 DUP3 PUSH2 0x39D JUMP JUMPDEST SWAP1 POP SWAP2 SWAP1 POP JUMP JUMPDEST PUSH2 0x3D8 DUP2 PUSH2 0x3BD JUMP JUMPDEST DUP2 EQ PUSH2 0x3E3 JUMPI PUSH1 0x0 DUP1 REVERT JUMPDEST POP JUMP JUMPDEST PUSH1 0x0 DUP2 CALLDATALOAD SWAP1 POP PUSH2 0x3F5 DUP2 PUSH2 0x3CF JUMP JUMPDEST SWAP3 SWAP2 POP POP JUMP JUMPDEST PUSH1 0x0 PUSH1 0x20 DUP3 DUP5 SUB SLT ISZERO PUSH2 0x411 JUMPI PUSH2 0x410 PUSH2 0x398 JUMP JUMPDEST JUMPDEST PUSH1 0x0 PUSH2 0x41F DUP5 DUP3 DUP6 ADD PUSH2 0x3E6 JUMP JUMPDEST SWAP2 POP POP SWAP3 SWAP2 POP POP JUMP JUMPDEST PUSH2 0x431 DUP2 PUSH2 0x364 JUMP JUMPDEST DUP2 EQ PUSH2 0x43C JUMPI PUSH1 0x0 DUP1 REVERT JUMPDEST POP JUMP JUMPDEST PUSH1 0x0 DUP2 CALLDATALOAD SWAP1 POP PUSH2 0x44E DUP2 PUSH2 0x428 JUMP JUMPDEST SWAP3 SWAP2 POP POP JUMP JUMPDEST PUSH1 0x0 PUSH1 0x20 DUP3 DUP5 SUB SLT ISZERO PUSH2 0x46A JUMPI PUSH2 0x469 PUSH2 0x398 JUMP JUMPDEST JUMPDEST PUSH1 0x0 PUSH2 0x478 DUP5 DUP3 DUP6 ADD PUSH2 0x43F JUMP JUMPDEST SWAP2 POP POP SWAP3 SWAP2 POP POP JUMP JUMPDEST PUSH1 0x0 DUP2 MLOAD SWAP1 POP PUSH2 0x490 DUP2 PUSH2 0x428 JUMP JUMPDEST SWAP3 SWAP2 POP POP JUMP JUMPDEST PUSH1 0x0 PUSH1 0x20 DUP3 DUP5 SUB SLT ISZERO PUSH2 0x4AC JUMPI PUSH2 0x4AB PUSH2 0x398 JUMP JUMPDEST JUMPDEST PUSH1 0x0 PUSH2 0x4BA DUP5 DUP3 DUP6 ADD PUSH2 0x481 JUMP JUMPDEST SWAP2 POP POP SWAP3 SWAP2 POP POP JUMP JUMPDEST PUSH32 0x4E487B7100000000000000000000000000000000000000000000000000000000 PUSH1 0x0 MSTORE PUSH1 0x11 PUSH1 0x4 MSTORE PUSH1 0x24 PUSH1 0x0 REVERT JUMPDEST PUSH1 0x0 PUSH2 0x4FD DUP3 PUSH2 0x364 JUMP JUMPDEST SWAP2 POP PUSH2 0x508 DUP4 PUSH2 0x364 JUMP JUMPDEST SWAP3 POP DUP2 PUSH32 0xFFFFFFFFFFFFFFFFFFFFFFFFFFFFFFFFFFFFFFFFFFFFFFFFFFFFFFFFFFFFFFFF DIV DUP4 GT DUP3 ISZERO ISZERO AND ISZERO PUSH2 0x541 JUMPI PUSH2 0x540 PUSH2 0x4C3 JUMP JUMPDEST JUMPDEST DUP3 DUP3 MUL SWAP1 POP SWAP3 SWAP2 POP POP JUMP JUMPDEST PUSH32 0x4E487B7100000000000000000000000000000000000000000000000000000000 PUSH1 0x0 MSTORE PUSH1 0x12 PUSH1 0x4 MSTORE PUSH1 0x24 PUSH1 0x0 REVERT JUMPDEST PUSH1 0x0 PUSH2 0x586 DUP3 PUSH2 0x364 JUMP JUMPDEST SWAP2 POP PUSH2 0x591 DUP4 PUSH2 0x364 JUMP JUMPDEST SWAP3 POP DUP3 PUSH2 0x5A1 JUMPI PUSH2 0x5A0 PUSH2 0x54C JUMP JUMPDEST JUMPDEST DUP3 DUP3 DIV SWAP1 POP SWAP3 SWAP2 POP POP JUMP JUMPDEST PUSH1 0x0 PUSH10 0xFFFFFFFFFFFFFFFFFFFF DUP3 AND SWAP1 POP SWAP2 SWAP1 POP JUMP JUMPDEST PUSH2 0x5CB DUP2 PUSH2 0x5AC JUMP JUMPDEST DUP2 EQ PUSH2 0x5D6 JUMPI PUSH1 0x0 DUP1 REVERT JUMPDEST POP JUMP JUMPDEST PUSH1 0x0 DUP2 MLOAD SWAP1 POP PUSH2 0x5E8 DUP2 PUSH2 0x5C2 JUMP JUMPDEST SWAP3 SWAP2 POP POP JUMP JUMPDEST PUSH1 0x0 DUP2 SWAP1 POP SWAP2 SWAP1 POP JUMP JUMPDEST PUSH2 0x601 DUP2 PUSH2 0x5EE JUMP JUMPDEST DUP2 EQ PUSH2 0x60C JUMPI PUSH1 0x0 DUP1 REVERT JUMPDEST POP JUMP JUMPDEST PUSH1 0x0 DUP2 MLOAD SWAP1 POP PUSH2 0x61E DUP2 PUSH2 0x5F8 JUMP JUMPDEST SWAP3 SWAP2 POP POP JUMP JUMPDEST PUSH1 0x0 DUP1 PUSH1 0x0 DUP1 PUSH1 0x0 PUSH1 0xA0 DUP7 DUP9 SUB SLT ISZERO PUSH2 0x640 JUMPI PUSH2 0x63F PUSH2 0x398 JUMP JUMPDEST JUMPDEST PUSH1 0x0 PUSH2 0x64E DUP9 DUP3 DUP10 ADD PUSH2 0x5D9 JUMP JUMPDEST SWAP6 POP POP PUSH1 0x20 PUSH2 0x65F DUP9 DUP3 DUP10 ADD PUSH2 0x60F JUMP JUMPDEST SWAP5 POP POP PUSH1 0x40 PUSH2 0x670 DUP9 DUP3 DUP10 ADD PUSH2 0x481 JUMP JUMPDEST SWAP4 POP POP PUSH1 0x60 PUSH2 0x681 DUP9 DUP3 DUP10 ADD PUSH2 0x481 JUMP JUMPDEST SWAP3 POP POP PUSH1 0x80 PUSH2 0x692 DUP9 DUP3 DUP10 ADD PUSH2 0x5D9 JUMP JUMPDEST SWAP2 POP POP SWAP3 SWAP6 POP SWAP3 SWAP6 SWAP1 SWAP4 POP JUMP JUMPDEST PUSH1 0x0 PUSH2 0x6AA DUP3 PUSH2 0x5EE JUMP JUMPDEST SWAP2 POP PUSH2 0x6B5 DUP4 PUSH2 0x5EE JUMP JUMPDEST SWAP3 POP DUP3 PUSH32 0x7FFFFFFFFFFFFFFFFFFFFFFFFFFFFFFFFFFFFFFFFFFFFFFFFFFFFFFFFFFFFFFF DIV DUP3 GT PUSH1 0x0 DUP5 SGT PUSH1 0x0 DUP5 SGT AND AND ISZERO PUSH2 0x6F4 JUMPI PUSH2 0x6F3 PUSH2 0x4C3 JUMP JUMPDEST JUMPDEST DUP2 PUSH32 0x8000000000000000000000000000000000000000000000000000000000000000 SDIV DUP4 SLT PUSH1 0x0 DUP5 SLT PUSH1 0x0 DUP5 SGT AND AND ISZERO PUSH2 0x731 JUMPI PUSH2 0x730 PUSH2 0x4C3 JUMP JUMPDEST JUMPDEST DUP3 PUSH32 0x8000000000000000000000000000000000000000000000000000000000000000 SDIV DUP3 SLT PUSH1 0x0 DUP5 SGT PUSH1 0x0 DUP5 SLT AND AND ISZERO PUSH2 0x76E JUMPI PUSH2 0x76D PUSH2 0x4C3 JUMP JUMPDEST JUMPDEST DUP3 PUSH32 0x7FFFFFFFFFFFFFFFFFFFFFFFFFFFFFFFFFFFFFFFFFFFFFFFFFFFFFFFFFFFFFFF SDIV DUP3 SLT PUSH1 0x0 DUP5 SLT PUSH1 0x0 DUP5 SLT AND AND ISZERO PUSH2 0x7AB JUMPI PUSH2 0x7AA PUSH2 0x4C3 JUMP JUMPDEST JUMPDEST DUP3 DUP3 MUL SWAP1 POP SWAP3 SWAP2 POP POP JUMP JUMPDEST PUSH1 0x0 PUSH2 0x7C1 DUP3 PUSH2 0x364 JUMP JUMPDEST SWAP2 POP PUSH2 0x7CC DUP4 PUSH2 0x364 JUMP JUMPDEST SWAP3 POP DUP3 PUSH32 0xFFFFFFFFFFFFFFFFFFFFFFFFFFFFFFFFFFFFFFFFFFFFFFFFFFFFFFFFFFFFFFFF SUB DUP3 GT ISZERO PUSH2 0x801 JUMPI PUSH2 0x800 PUSH2 0x4C3 JUMP JUMPDEST JUMPDEST DUP3 DUP3 ADD SWAP1 POP SWAP3 SWAP2 POP POP JUMP JUMPDEST PUSH1 0x0 DUP3 DUP3 MSTORE PUSH1 0x20 DUP3 ADD SWAP1 POP SWAP3 SWAP2 POP POP JUMP JUMPDEST PUSH32 0x596F75206E65656420746F207370656E64206D6F726520455448212C20697420 PUSH1 0x0 DUP3 ADD MSTORE PUSH32 0x73686F756C64206265206D6F7265207468616E20353000000000000000000000 PUSH1 0x20 DUP3 ADD MSTORE POP JUMP JUMPDEST PUSH1 0x0 PUSH2 0x879 PUSH1 0x36 DUP4 PUSH2 0x80C JUMP JUMPDEST SWAP2 POP PUSH2 0x884 DUP3 PUSH2 0x81D JUMP JUMPDEST PUSH1 0x40 DUP3 ADD SWAP1 POP SWAP2 SWAP1 POP JUMP JUMPDEST PUSH1 0x0 PUSH1 0x20 DUP3 ADD SWAP1 POP DUP2 DUP2 SUB PUSH1 0x0 DUP4 ADD MSTORE PUSH2 0x8A8 DUP2 PUSH2 0x86C JUMP JUMPDEST SWAP1 POP SWAP2 SWAP1 POP JUMP INVALID LOG2 PUSH5 0x6970667358 0x22 SLT KECCAK256 PUSH2 0xA2AF MSTORE AND DUP6 PUSH3 0xDBA623 STATICCALL 0xDD SHL DUP1 0xAE DUP13 PUSH26 0x8A18542661E798AD1B989FEE4E1ABB64736F6C634300080D0033 "
				},
				"gasEstimates": {
					"creation": {
						"codeDepositCost": "455400",
						"executionCost": "493",
						"totalCost": "455893"
					},
					"external": {
						"addressToAmountFunded(address)": "2814",
						"fund()": "infinite",
						"getConversionRate(uint256)": "infinite",
						"getPrice()": "infinite",
						"getVersion()": "infinite"
					}
				},
				"methodIdentifiers": {
					"addressToAmountFunded(address)": "3e47d6f3",
					"fund()": "b60d4288",
					"getConversionRate(uint256)": "6e5b6b28",
					"getPrice()": "98d5fdca",
					"getVersion()": "0d8e6e2c"
				}
			},
			"storageLayout": {
				"storage": [
					{
						"astId": 52,
						"contract": "contracts/FundMe.sol:FundMe",
						"label": "addressToAmountFunded",
						"offset": 0,
						"slot": "0",
						"type": "t_mapping(t_address,t_uint256)"
					}
				],
				"types": {
					"t_address": {
						"encoding": "inplace",
						"label": "address",
						"numberOfBytes": "20"
					},
					"t_mapping(t_address,t_uint256)": {
						"encoding": "mapping",
						"key": "t_address",
						"label": "mapping(address => uint256)",
						"numberOfBytes": "32",
						"value": "t_uint256"
					},
					"t_uint256": {
						"encoding": "inplace",
						"label": "uint256",
						"numberOfBytes": "32"
					}
				}
			},
			"userdoc": {
				"kind": "user",
				"methods": {},
				"version": 1
			}
		}
	}
}