{
	"contracts/FundMe.sol": {
		"FundMe": {
			"abi": [
				{
					"inputs": [],
					"stateMutability": "nonpayable",
					"type": "constructor"
				},
				{
					"inputs": [
						{
							"internalType": "address",
							"name": "",
							"type": "address"
						}
					],
					"name": "addressToAmountFunded",
					"outputs": [
						{
							"internalType": "uint256",
							"name": "",
							"type": "uint256"
						}
					],
					"stateMutability": "view",
					"type": "function"
				},
				{
					"inputs": [],
					"name": "fund",
					"outputs": [],
					"stateMutability": "payable",
					"type": "function"
				},
				{
					"inputs": [
						{
							"internalType": "uint256",
							"name": "ethAmount",
							"type": "uint256"
						}
					],
					"name": "getConversionRate",
					"outputs": [
						{
							"internalType": "uint256",
							"name": "",
							"type": "uint256"
						}
					],
					"stateMutability": "view",
					"type": "function"
				},
				{
					"inputs": [],
					"name": "getPrice",
					"outputs": [
						{
							"internalType": "uint256",
							"name": "",
							"type": "uint256"
						}
					],
					"stateMutability": "view",
					"type": "function"
				},
				{
					"inputs": [],
					"name": "getVersion",
					"outputs": [
						{
							"internalType": "uint256",
							"name": "",
							"type": "uint256"
						}
					],
					"stateMutability": "view",
					"type": "function"
				},
				{
					"inputs": [],
					"name": "owner",
					"outputs": [
						{
							"internalType": "address",
							"name": "",
							"type": "address"
						}
					],
					"stateMutability": "view",
					"type": "function"
				},
				{
					"inputs": [],
					"name": "withdraw",
					"outputs": [],
					"stateMutability": "payable",
					"type": "function"
				}
			],
			"devdoc": {
				"kind": "dev",
				"methods": {},
				"version": 1
			},
			"evm": {
				"assembly": "    /* \"contracts/FundMe.sol\":252:2282  contract FundMe {... */\n  mstore(0x40, 0x80)\n    /* \"contracts/FundMe.sol\":472:587  constructor() {... */\n  callvalue\n  dup1\n  iszero\n  tag_1\n  jumpi\n  0x00\n  dup1\n  revert\ntag_1:\n  pop\n    /* \"contracts/FundMe.sol\":570:580  msg.sender */\n  caller\n    /* \"contracts/FundMe.sol\":562:567  owner */\n  0x01\n  0x00\n    /* \"contracts/FundMe.sol\":562:580  owner = msg.sender */\n  0x0100\n  exp\n  dup2\n  sload\n  dup2\n  0xffffffffffffffffffffffffffffffffffffffff\n  mul\n  not\n  and\n  swap1\n  dup4\n  0xffffffffffffffffffffffffffffffffffffffff\n  and\n  mul\n  or\n  swap1\n  sstore\n  pop\n    /* \"contracts/FundMe.sol\":252:2282  contract FundMe {... */\n  dataSize(sub_0)\n  dup1\n  dataOffset(sub_0)\n  0x00\n  codecopy\n  0x00\n  return\nstop\n\nsub_0: assembly {\n        /* \"contracts/FundMe.sol\":252:2282  contract FundMe {... */\n      mstore(0x40, 0x80)\n      jumpi(tag_1, lt(calldatasize, 0x04))\n      shr(0xe0, calldataload(0x00))\n      dup1\n      0x6e5b6b28\n      gt\n      tag_9\n      jumpi\n      dup1\n      0x6e5b6b28\n      eq\n      tag_5\n      jumpi\n      dup1\n      0x8da5cb5b\n      eq\n      tag_6\n      jumpi\n      dup1\n      0x98d5fdca\n      eq\n      tag_7\n      jumpi\n      dup1\n      0xb60d4288\n      eq\n      tag_8\n      jumpi\n      jump(tag_1)\n    tag_9:\n      dup1\n      0x0d8e6e2c\n      eq\n      tag_2\n      jumpi\n      dup1\n      0x3ccfd60b\n      eq\n      tag_3\n      jumpi\n      dup1\n      0x3e47d6f3\n      eq\n      tag_4\n      jumpi\n    tag_1:\n      0x00\n      dup1\n      revert\n        /* \"contracts/FundMe.sol\":997:1266  function getVersion() public view returns (uint256) {... */\n    tag_2:\n      callvalue\n      dup1\n      iszero\n      tag_10\n      jumpi\n      0x00\n      dup1\n      revert\n    tag_10:\n      pop\n      tag_11\n      tag_12\n      jump\t// in\n    tag_11:\n      mload(0x40)\n      tag_13\n      swap2\n      swap1\n      tag_14\n      jump\t// in\n    tag_13:\n      mload(0x40)\n      dup1\n      swap2\n      sub\n      swap1\n      return\n        /* \"contracts/FundMe.sol\":2004:2280  function withdraw() payable public {... */\n    tag_3:\n      tag_15\n      tag_16\n      jump\t// in\n    tag_15:\n      stop\n        /* \"contracts/FundMe.sol\":382:438  mapping(address => uint256) public addressToAmountFunded */\n    tag_4:\n      callvalue\n      dup1\n      iszero\n      tag_17\n      jumpi\n      0x00\n      dup1\n      revert\n    tag_17:\n      pop\n      tag_18\n      0x04\n      dup1\n      calldatasize\n      sub\n      dup2\n      add\n      swap1\n      tag_19\n      swap2\n      swap1\n      tag_20\n      jump\t// in\n    tag_19:\n      tag_21\n      jump\t// in\n    tag_18:\n      mload(0x40)\n      tag_22\n      swap2\n      swap1\n      tag_14\n      jump\t// in\n    tag_22:\n      mload(0x40)\n      dup1\n      swap2\n      sub\n      swap1\n      return\n        /* \"contracts/FundMe.sol\":1722:1998  function getConversionRate(uint256 ethAmount) public view returns (uint256) {... */\n    tag_5:\n      callvalue\n      dup1\n      iszero\n      tag_23\n      jumpi\n      0x00\n      dup1\n      revert\n    tag_23:\n      pop\n      tag_24\n      0x04\n      dup1\n      calldatasize\n      sub\n      dup2\n      add\n      swap1\n      tag_25\n      swap2\n      swap1\n      tag_26\n      jump\t// in\n    tag_25:\n      tag_27\n      jump\t// in\n    tag_24:\n      mload(0x40)\n      tag_28\n      swap2\n      swap1\n      tag_14\n      jump\t// in\n    tag_28:\n      mload(0x40)\n      dup1\n      swap2\n      sub\n      swap1\n      return\n        /* \"contracts/FundMe.sol\":445:465  address public owner */\n    tag_6:\n      callvalue\n      dup1\n      iszero\n      tag_29\n      jumpi\n      0x00\n      dup1\n      revert\n    tag_29:\n      pop\n      tag_30\n      tag_31\n      jump\t// in\n    tag_30:\n      mload(0x40)\n      tag_32\n      swap2\n      swap1\n      tag_33\n      jump\t// in\n    tag_32:\n      mload(0x40)\n      dup1\n      swap2\n      sub\n      swap1\n      return\n        /* \"contracts/FundMe.sol\":1272:1716  function getPrice() public view returns (uint256) {... */\n    tag_7:\n      callvalue\n      dup1\n      iszero\n      tag_34\n      jumpi\n      0x00\n      dup1\n      revert\n    tag_34:\n      pop\n      tag_35\n      tag_36\n      jump\t// in\n    tag_35:\n      mload(0x40)\n      tag_37\n      swap2\n      swap1\n      tag_14\n      jump\t// in\n    tag_37:\n      mload(0x40)\n      dup1\n      swap2\n      sub\n      swap1\n      return\n        /* \"contracts/FundMe.sol\":629:991  function fund() public payable {... */\n    tag_8:\n      tag_38\n      tag_39\n      jump\t// in\n    tag_38:\n      stop\n        /* \"contracts/FundMe.sol\":997:1266  function getVersion() public view returns (uint256) {... */\n    tag_12:\n        /* \"contracts/FundMe.sol\":1040:1047  uint256 */\n      0x00\n        /* \"contracts/FundMe.sol\":1059:1090  AggregatorV3Interface priceFeed */\n      dup1\n        /* \"contracts/FundMe.sol\":1115:1157  0x8A753747A1Fa494EC906cE90E9f37563A8AF630e */\n      0x8a753747a1fa494ec906ce90e9f37563a8af630e\n        /* \"contracts/FundMe.sol\":1059:1158  AggregatorV3Interface priceFeed = AggregatorV3Interface(0x8A753747A1Fa494EC906cE90E9f37563A8AF630e) */\n      swap1\n      pop\n        /* \"contracts/FundMe.sol\":1240:1249  priceFeed */\n      dup1\n        /* \"contracts/FundMe.sol\":1240:1257  priceFeed.version */\n      0xffffffffffffffffffffffffffffffffffffffff\n      and\n      0x54fd4d50\n        /* \"contracts/FundMe.sol\":1240:1259  priceFeed.version() */\n      mload(0x40)\n      dup2\n      0xffffffff\n      and\n      0xe0\n      shl\n      dup2\n      mstore\n      0x04\n      add\n      0x20\n      mload(0x40)\n      dup1\n      dup4\n      sub\n      dup2\n      dup7\n      gas\n      staticcall\n      iszero\n      dup1\n      iszero\n      tag_42\n      jumpi\n      returndatasize\n      0x00\n      dup1\n      returndatacopy\n      revert(0x00, returndatasize)\n    tag_42:\n      pop\n      pop\n      pop\n      pop\n      mload(0x40)\n      returndatasize\n      not(0x1f)\n      0x1f\n      dup3\n      add\n      and\n      dup3\n      add\n      dup1\n      0x40\n      mstore\n      pop\n      dup2\n      add\n      swap1\n      tag_43\n      swap2\n      swap1\n      tag_44\n      jump\t// in\n    tag_43:\n        /* \"contracts/FundMe.sol\":1233:1259  return priceFeed.version() */\n      swap2\n      pop\n      pop\n        /* \"contracts/FundMe.sol\":997:1266  function getVersion() public view returns (uint256) {... */\n      swap1\n      jump\t// out\n        /* \"contracts/FundMe.sol\":2004:2280  function withdraw() payable public {... */\n    tag_16:\n        /* \"contracts/FundMe.sol\":2169:2174  owner */\n      0x01\n      0x00\n      swap1\n      sload\n      swap1\n      0x0100\n      exp\n      swap1\n      div\n      0xffffffffffffffffffffffffffffffffffffffff\n      and\n        /* \"contracts/FundMe.sol\":2155:2174  msg.sender == owner */\n      0xffffffffffffffffffffffffffffffffffffffff\n      and\n        /* \"contracts/FundMe.sol\":2155:2165  msg.sender */\n      caller\n        /* \"contracts/FundMe.sol\":2155:2174  msg.sender == owner */\n      0xffffffffffffffffffffffffffffffffffffffff\n      and\n      eq\n        /* \"contracts/FundMe.sol\":2147:2212  require(msg.sender == owner, \"Only the owner can withdraw mate!\") */\n      tag_46\n      jumpi\n      mload(0x40)\n      0x08c379a000000000000000000000000000000000000000000000000000000000\n      dup2\n      mstore\n      0x04\n      add\n      tag_47\n      swap1\n      tag_48\n      jump\t// in\n    tag_47:\n      mload(0x40)\n      dup1\n      swap2\n      sub\n      swap1\n      revert\n    tag_46:\n        /* \"contracts/FundMe.sol\":2230:2240  msg.sender */\n      caller\n        /* \"contracts/FundMe.sol\":2222:2250  payable(msg.sender).transfer */\n      0xffffffffffffffffffffffffffffffffffffffff\n      and\n        /* \"contracts/FundMe.sol\":2222:2273  payable(msg.sender).transfer(address(this).balance) */\n      0x08fc\n        /* \"contracts/FundMe.sol\":2251:2272  address(this).balance */\n      selfbalance\n        /* \"contracts/FundMe.sol\":2222:2273  payable(msg.sender).transfer(address(this).balance) */\n      swap1\n      dup2\n      iszero\n      mul\n      swap1\n      mload(0x40)\n      0x00\n      mload(0x40)\n      dup1\n      dup4\n      sub\n      dup2\n      dup6\n      dup9\n      dup9\n      call\n      swap4\n      pop\n      pop\n      pop\n      pop\n      iszero\n      dup1\n      iszero\n      tag_50\n      jumpi\n      returndatasize\n      0x00\n      dup1\n      returndatacopy\n      revert(0x00, returndatasize)\n    tag_50:\n      pop\n        /* \"contracts/FundMe.sol\":2004:2280  function withdraw() payable public {... */\n      jump\t// out\n        /* \"contracts/FundMe.sol\":382:438  mapping(address => uint256) public addressToAmountFunded */\n    tag_21:\n      mstore(0x20, 0x00)\n      dup1\n      0x00\n      mstore\n      keccak256(0x00, 0x40)\n      0x00\n      swap2\n      pop\n      swap1\n      pop\n      sload\n      dup2\n      jump\t// out\n        /* \"contracts/FundMe.sol\":1722:1998  function getConversionRate(uint256 ethAmount) public view returns (uint256) {... */\n    tag_27:\n        /* \"contracts/FundMe.sol\":1789:1796  uint256 */\n      0x00\n        /* \"contracts/FundMe.sol\":1808:1824  uint256 ethPrice */\n      dup1\n        /* \"contracts/FundMe.sol\":1827:1837  getPrice() */\n      tag_52\n        /* \"contracts/FundMe.sol\":1827:1835  getPrice */\n      tag_36\n        /* \"contracts/FundMe.sol\":1827:1837  getPrice() */\n      jump\t// in\n    tag_52:\n        /* \"contracts/FundMe.sol\":1808:1837  uint256 ethPrice = getPrice() */\n      swap1\n      pop\n        /* \"contracts/FundMe.sol\":1847:1870  uint256 ethAmountInUsed */\n      0x00\n        /* \"contracts/FundMe.sol\":1897:1916  1000000000000000000 */\n      0x0de0b6b3a7640000\n        /* \"contracts/FundMe.sol\":1885:1894  ethAmount */\n      dup5\n        /* \"contracts/FundMe.sol\":1874:1882  ethPrice */\n      dup4\n        /* \"contracts/FundMe.sol\":1874:1894  ethPrice * ethAmount */\n      tag_53\n      swap2\n      swap1\n      tag_54\n      jump\t// in\n    tag_53:\n        /* \"contracts/FundMe.sol\":1874:1916  ethPrice * ethAmount / 1000000000000000000 */\n      tag_55\n      swap2\n      swap1\n      tag_56\n      jump\t// in\n    tag_55:\n        /* \"contracts/FundMe.sol\":1847:1917  uint256 ethAmountInUsed = (ethPrice * ethAmount / 1000000000000000000) */\n      swap1\n      pop\n        /* \"contracts/FundMe.sol\":1934:1949  ethAmountInUsed */\n      dup1\n        /* \"contracts/FundMe.sol\":1927:1949  return ethAmountInUsed */\n      swap3\n      pop\n      pop\n      pop\n        /* \"contracts/FundMe.sol\":1722:1998  function getConversionRate(uint256 ethAmount) public view returns (uint256) {... */\n      swap2\n      swap1\n      pop\n      jump\t// out\n        /* \"contracts/FundMe.sol\":445:465  address public owner */\n    tag_31:\n      0x01\n      0x00\n      swap1\n      sload\n      swap1\n      0x0100\n      exp\n      swap1\n      div\n      0xffffffffffffffffffffffffffffffffffffffff\n      and\n      dup2\n      jump\t// out\n        /* \"contracts/FundMe.sol\":1272:1716  function getPrice() public view returns (uint256) {... */\n    tag_36:\n        /* \"contracts/FundMe.sol\":1313:1320  uint256 */\n      0x00\n        /* \"contracts/FundMe.sol\":1332:1363  AggregatorV3Interface priceFeed */\n      dup1\n        /* \"contracts/FundMe.sol\":1388:1430  0x8A753747A1Fa494EC906cE90E9f37563A8AF630e */\n      0x8a753747a1fa494ec906ce90e9f37563a8af630e\n        /* \"contracts/FundMe.sol\":1332:1431  AggregatorV3Interface priceFeed = AggregatorV3Interface(0x8A753747A1Fa494EC906cE90E9f37563A8AF630e) */\n      swap1\n      pop\n        /* \"contracts/FundMe.sol\":1616:1629  int256 answer */\n      0x00\n        /* \"contracts/FundMe.sol\":1636:1645  priceFeed */\n      dup2\n        /* \"contracts/FundMe.sol\":1636:1661  priceFeed.latestRoundData */\n      0xffffffffffffffffffffffffffffffffffffffff\n      and\n      0xfeaf968c\n        /* \"contracts/FundMe.sol\":1636:1663  priceFeed.latestRoundData() */\n      mload(0x40)\n      dup2\n      0xffffffff\n      and\n      0xe0\n      shl\n      dup2\n      mstore\n      0x04\n      add\n      0xa0\n      mload(0x40)\n      dup1\n      dup4\n      sub\n      dup2\n      dup7\n      gas\n      staticcall\n      iszero\n      dup1\n      iszero\n      tag_59\n      jumpi\n      returndatasize\n      0x00\n      dup1\n      returndatacopy\n      revert(0x00, returndatasize)\n    tag_59:\n      pop\n      pop\n      pop\n      pop\n      mload(0x40)\n      returndatasize\n      not(0x1f)\n      0x1f\n      dup3\n      add\n      and\n      dup3\n      add\n      dup1\n      0x40\n      mstore\n      pop\n      dup2\n      add\n      swap1\n      tag_60\n      swap2\n      swap1\n      tag_61\n      jump\t// in\n    tag_60:\n        /* \"contracts/FundMe.sol\":1614:1663  (,int256 answer,,,) = priceFeed.latestRoundData() */\n      pop\n      pop\n      pop\n      swap2\n      pop\n      pop\n        /* \"contracts/FundMe.sol\":1697:1708  10000000000 */\n      0x02540be400\n        /* \"contracts/FundMe.sol\":1688:1694  answer */\n      dup2\n        /* \"contracts/FundMe.sol\":1688:1708  answer * 10000000000 */\n      tag_62\n      swap2\n      swap1\n      tag_63\n      jump\t// in\n    tag_62:\n        /* \"contracts/FundMe.sol\":1673:1709  return uint256(answer * 10000000000) */\n      swap3\n      pop\n      pop\n      pop\n        /* \"contracts/FundMe.sol\":1272:1716  function getPrice() public view returns (uint256) {... */\n      swap1\n      jump\t// out\n        /* \"contracts/FundMe.sol\":629:991  function fund() public payable {... */\n    tag_39:\n        /* \"contracts/FundMe.sol\":707:716  msg.value */\n      callvalue\n        /* \"contracts/FundMe.sol\":670:691  addressToAmountFunded */\n      0x00\n        /* \"contracts/FundMe.sol\":670:703  addressToAmountFunded[msg.sender] */\n      dup1\n        /* \"contracts/FundMe.sol\":692:702  msg.sender */\n      caller\n        /* \"contracts/FundMe.sol\":670:703  addressToAmountFunded[msg.sender] */\n      0xffffffffffffffffffffffffffffffffffffffff\n      and\n      0xffffffffffffffffffffffffffffffffffffffff\n      and\n      dup2\n      mstore\n      0x20\n      add\n      swap1\n      dup2\n      mstore\n      0x20\n      add\n      0x00\n      keccak256\n      0x00\n        /* \"contracts/FundMe.sol\":670:716  addressToAmountFunded[msg.sender] += msg.value */\n      dup3\n      dup3\n      sload\n      tag_65\n      swap2\n      swap1\n      tag_66\n      jump\t// in\n    tag_65:\n      swap3\n      pop\n      pop\n      dup2\n      swap1\n      sstore\n      pop\n        /* \"contracts/FundMe.sol\":773:791  uint256 minimumUSD */\n      0x00\n        /* \"contracts/FundMe.sol\":794:806  1 * 10 ** 18 */\n      0x0de0b6b3a7640000\n        /* \"contracts/FundMe.sol\":773:806  uint256 minimumUSD = 1 * 10 ** 18 */\n      swap1\n      pop\n        /* \"contracts/FundMe.sol\":914:924  minimumUSD */\n      dup1\n        /* \"contracts/FundMe.sol\":882:910  getConversionRate(msg.value) */\n      tag_67\n        /* \"contracts/FundMe.sol\":900:909  msg.value */\n      callvalue\n        /* \"contracts/FundMe.sol\":882:899  getConversionRate */\n      tag_27\n        /* \"contracts/FundMe.sol\":882:910  getConversionRate(msg.value) */\n      jump\t// in\n    tag_67:\n        /* \"contracts/FundMe.sol\":882:924  getConversionRate(msg.value) >= minimumUSD */\n      lt\n      iszero\n        /* \"contracts/FundMe.sol\":874:983  require(getConversionRate(msg.value) >= minimumUSD, \"You need to spend more ETH!, it should be more than $1\") */\n      tag_68\n      jumpi\n      mload(0x40)\n      0x08c379a000000000000000000000000000000000000000000000000000000000\n      dup2\n      mstore\n      0x04\n      add\n      tag_69\n      swap1\n      tag_70\n      jump\t// in\n    tag_69:\n      mload(0x40)\n      dup1\n      swap2\n      sub\n      swap1\n      revert\n    tag_68:\n        /* \"contracts/FundMe.sol\":660:991  {... */\n      pop\n        /* \"contracts/FundMe.sol\":629:991  function fund() public payable {... */\n      jump\t// out\n        /* \"#utility.yul\":7:84   */\n    tag_71:\n        /* \"#utility.yul\":44:51   */\n      0x00\n        /* \"#utility.yul\":73:78   */\n      dup2\n        /* \"#utility.yul\":62:78   */\n      swap1\n      pop\n        /* \"#utility.yul\":7:84   */\n      swap2\n      swap1\n      pop\n      jump\t// out\n        /* \"#utility.yul\":90:208   */\n    tag_72:\n        /* \"#utility.yul\":177:201   */\n      tag_100\n        /* \"#utility.yul\":195:200   */\n      dup2\n        /* \"#utility.yul\":177:201   */\n      tag_71\n      jump\t// in\n    tag_100:\n        /* \"#utility.yul\":172:175   */\n      dup3\n        /* \"#utility.yul\":165:202   */\n      mstore\n        /* \"#utility.yul\":90:208   */\n      pop\n      pop\n      jump\t// out\n        /* \"#utility.yul\":214:436   */\n    tag_14:\n        /* \"#utility.yul\":307:311   */\n      0x00\n        /* \"#utility.yul\":345:347   */\n      0x20\n        /* \"#utility.yul\":334:343   */\n      dup3\n        /* \"#utility.yul\":330:348   */\n      add\n        /* \"#utility.yul\":322:348   */\n      swap1\n      pop\n        /* \"#utility.yul\":358:429   */\n      tag_102\n        /* \"#utility.yul\":426:427   */\n      0x00\n        /* \"#utility.yul\":415:424   */\n      dup4\n        /* \"#utility.yul\":411:428   */\n      add\n        /* \"#utility.yul\":402:408   */\n      dup5\n        /* \"#utility.yul\":358:429   */\n      tag_72\n      jump\t// in\n    tag_102:\n        /* \"#utility.yul\":214:436   */\n      swap3\n      swap2\n      pop\n      pop\n      jump\t// out\n        /* \"#utility.yul\":523:640   */\n    tag_74:\n        /* \"#utility.yul\":632:633   */\n      0x00\n        /* \"#utility.yul\":629:630   */\n      dup1\n        /* \"#utility.yul\":622:634   */\n      revert\n        /* \"#utility.yul\":769:895   */\n    tag_76:\n        /* \"#utility.yul\":806:813   */\n      0x00\n        /* \"#utility.yul\":846:888   */\n      0xffffffffffffffffffffffffffffffffffffffff\n        /* \"#utility.yul\":839:844   */\n      dup3\n        /* \"#utility.yul\":835:889   */\n      and\n        /* \"#utility.yul\":824:889   */\n      swap1\n      pop\n        /* \"#utility.yul\":769:895   */\n      swap2\n      swap1\n      pop\n      jump\t// out\n        /* \"#utility.yul\":901:997   */\n    tag_77:\n        /* \"#utility.yul\":938:945   */\n      0x00\n        /* \"#utility.yul\":967:991   */\n      tag_108\n        /* \"#utility.yul\":985:990   */\n      dup3\n        /* \"#utility.yul\":967:991   */\n      tag_76\n      jump\t// in\n    tag_108:\n        /* \"#utility.yul\":956:991   */\n      swap1\n      pop\n        /* \"#utility.yul\":901:997   */\n      swap2\n      swap1\n      pop\n      jump\t// out\n        /* \"#utility.yul\":1003:1125   */\n    tag_78:\n        /* \"#utility.yul\":1076:1100   */\n      tag_110\n        /* \"#utility.yul\":1094:1099   */\n      dup2\n        /* \"#utility.yul\":1076:1100   */\n      tag_77\n      jump\t// in\n    tag_110:\n        /* \"#utility.yul\":1069:1074   */\n      dup2\n        /* \"#utility.yul\":1066:1101   */\n      eq\n        /* \"#utility.yul\":1056:1119   */\n      tag_111\n      jumpi\n        /* \"#utility.yul\":1115:1116   */\n      0x00\n        /* \"#utility.yul\":1112:1113   */\n      dup1\n        /* \"#utility.yul\":1105:1117   */\n      revert\n        /* \"#utility.yul\":1056:1119   */\n    tag_111:\n        /* \"#utility.yul\":1003:1125   */\n      pop\n      jump\t// out\n        /* \"#utility.yul\":1131:1270   */\n    tag_79:\n        /* \"#utility.yul\":1177:1182   */\n      0x00\n        /* \"#utility.yul\":1215:1221   */\n      dup2\n        /* \"#utility.yul\":1202:1222   */\n      calldataload\n        /* \"#utility.yul\":1193:1222   */\n      swap1\n      pop\n        /* \"#utility.yul\":1231:1264   */\n      tag_113\n        /* \"#utility.yul\":1258:1263   */\n      dup2\n        /* \"#utility.yul\":1231:1264   */\n      tag_78\n      jump\t// in\n    tag_113:\n        /* \"#utility.yul\":1131:1270   */\n      swap3\n      swap2\n      pop\n      pop\n      jump\t// out\n        /* \"#utility.yul\":1276:1605   */\n    tag_20:\n        /* \"#utility.yul\":1335:1341   */\n      0x00\n        /* \"#utility.yul\":1384:1386   */\n      0x20\n        /* \"#utility.yul\":1372:1381   */\n      dup3\n        /* \"#utility.yul\":1363:1370   */\n      dup5\n        /* \"#utility.yul\":1359:1382   */\n      sub\n        /* \"#utility.yul\":1355:1387   */\n      slt\n        /* \"#utility.yul\":1352:1471   */\n      iszero\n      tag_115\n      jumpi\n        /* \"#utility.yul\":1390:1469   */\n      tag_116\n      tag_74\n      jump\t// in\n    tag_116:\n        /* \"#utility.yul\":1352:1471   */\n    tag_115:\n        /* \"#utility.yul\":1510:1511   */\n      0x00\n        /* \"#utility.yul\":1535:1588   */\n      tag_117\n        /* \"#utility.yul\":1580:1587   */\n      dup5\n        /* \"#utility.yul\":1571:1577   */\n      dup3\n        /* \"#utility.yul\":1560:1569   */\n      dup6\n        /* \"#utility.yul\":1556:1578   */\n      add\n        /* \"#utility.yul\":1535:1588   */\n      tag_79\n      jump\t// in\n    tag_117:\n        /* \"#utility.yul\":1525:1588   */\n      swap2\n      pop\n        /* \"#utility.yul\":1481:1598   */\n      pop\n        /* \"#utility.yul\":1276:1605   */\n      swap3\n      swap2\n      pop\n      pop\n      jump\t// out\n        /* \"#utility.yul\":1611:1733   */\n    tag_80:\n        /* \"#utility.yul\":1684:1708   */\n      tag_119\n        /* \"#utility.yul\":1702:1707   */\n      dup2\n        /* \"#utility.yul\":1684:1708   */\n      tag_71\n      jump\t// in\n    tag_119:\n        /* \"#utility.yul\":1677:1682   */\n      dup2\n        /* \"#utility.yul\":1674:1709   */\n      eq\n        /* \"#utility.yul\":1664:1727   */\n      tag_120\n      jumpi\n        /* \"#utility.yul\":1723:1724   */\n      0x00\n        /* \"#utility.yul\":1720:1721   */\n      dup1\n        /* \"#utility.yul\":1713:1725   */\n      revert\n        /* \"#utility.yul\":1664:1727   */\n    tag_120:\n        /* \"#utility.yul\":1611:1733   */\n      pop\n      jump\t// out\n        /* \"#utility.yul\":1739:1878   */\n    tag_81:\n        /* \"#utility.yul\":1785:1790   */\n      0x00\n        /* \"#utility.yul\":1823:1829   */\n      dup2\n        /* \"#utility.yul\":1810:1830   */\n      calldataload\n        /* \"#utility.yul\":1801:1830   */\n      swap1\n      pop\n        /* \"#utility.yul\":1839:1872   */\n      tag_122\n        /* \"#utility.yul\":1866:1871   */\n      dup2\n        /* \"#utility.yul\":1839:1872   */\n      tag_80\n      jump\t// in\n    tag_122:\n        /* \"#utility.yul\":1739:1878   */\n      swap3\n      swap2\n      pop\n      pop\n      jump\t// out\n        /* \"#utility.yul\":1884:2213   */\n    tag_26:\n        /* \"#utility.yul\":1943:1949   */\n      0x00\n        /* \"#utility.yul\":1992:1994   */\n      0x20\n        /* \"#utility.yul\":1980:1989   */\n      dup3\n        /* \"#utility.yul\":1971:1978   */\n      dup5\n        /* \"#utility.yul\":1967:1990   */\n      sub\n        /* \"#utility.yul\":1963:1995   */\n      slt\n        /* \"#utility.yul\":1960:2079   */\n      iszero\n      tag_124\n      jumpi\n        /* \"#utility.yul\":1998:2077   */\n      tag_125\n      tag_74\n      jump\t// in\n    tag_125:\n        /* \"#utility.yul\":1960:2079   */\n    tag_124:\n        /* \"#utility.yul\":2118:2119   */\n      0x00\n        /* \"#utility.yul\":2143:2196   */\n      tag_126\n        /* \"#utility.yul\":2188:2195   */\n      dup5\n        /* \"#utility.yul\":2179:2185   */\n      dup3\n        /* \"#utility.yul\":2168:2177   */\n      dup6\n        /* \"#utility.yul\":2164:2186   */\n      add\n        /* \"#utility.yul\":2143:2196   */\n      tag_81\n      jump\t// in\n    tag_126:\n        /* \"#utility.yul\":2133:2196   */\n      swap2\n      pop\n        /* \"#utility.yul\":2089:2206   */\n      pop\n        /* \"#utility.yul\":1884:2213   */\n      swap3\n      swap2\n      pop\n      pop\n      jump\t// out\n        /* \"#utility.yul\":2219:2337   */\n    tag_82:\n        /* \"#utility.yul\":2306:2330   */\n      tag_128\n        /* \"#utility.yul\":2324:2329   */\n      dup2\n        /* \"#utility.yul\":2306:2330   */\n      tag_77\n      jump\t// in\n    tag_128:\n        /* \"#utility.yul\":2301:2304   */\n      dup3\n        /* \"#utility.yul\":2294:2331   */\n      mstore\n        /* \"#utility.yul\":2219:2337   */\n      pop\n      pop\n      jump\t// out\n        /* \"#utility.yul\":2343:2565   */\n    tag_33:\n        /* \"#utility.yul\":2436:2440   */\n      0x00\n        /* \"#utility.yul\":2474:2476   */\n      0x20\n        /* \"#utility.yul\":2463:2472   */\n      dup3\n        /* \"#utility.yul\":2459:2477   */\n      add\n        /* \"#utility.yul\":2451:2477   */\n      swap1\n      pop\n        /* \"#utility.yul\":2487:2558   */\n      tag_130\n        /* \"#utility.yul\":2555:2556   */\n      0x00\n        /* \"#utility.yul\":2544:2553   */\n      dup4\n        /* \"#utility.yul\":2540:2557   */\n      add\n        /* \"#utility.yul\":2531:2537   */\n      dup5\n        /* \"#utility.yul\":2487:2558   */\n      tag_82\n      jump\t// in\n    tag_130:\n        /* \"#utility.yul\":2343:2565   */\n      swap3\n      swap2\n      pop\n      pop\n      jump\t// out\n        /* \"#utility.yul\":2571:2714   */\n    tag_83:\n        /* \"#utility.yul\":2628:2633   */\n      0x00\n        /* \"#utility.yul\":2659:2665   */\n      dup2\n        /* \"#utility.yul\":2653:2666   */\n      mload\n        /* \"#utility.yul\":2644:2666   */\n      swap1\n      pop\n        /* \"#utility.yul\":2675:2708   */\n      tag_132\n        /* \"#utility.yul\":2702:2707   */\n      dup2\n        /* \"#utility.yul\":2675:2708   */\n      tag_80\n      jump\t// in\n    tag_132:\n        /* \"#utility.yul\":2571:2714   */\n      swap3\n      swap2\n      pop\n      pop\n      jump\t// out\n        /* \"#utility.yul\":2720:3071   */\n    tag_44:\n        /* \"#utility.yul\":2790:2796   */\n      0x00\n        /* \"#utility.yul\":2839:2841   */\n      0x20\n        /* \"#utility.yul\":2827:2836   */\n      dup3\n        /* \"#utility.yul\":2818:2825   */\n      dup5\n        /* \"#utility.yul\":2814:2837   */\n      sub\n        /* \"#utility.yul\":2810:2842   */\n      slt\n        /* \"#utility.yul\":2807:2926   */\n      iszero\n      tag_134\n      jumpi\n        /* \"#utility.yul\":2845:2924   */\n      tag_135\n      tag_74\n      jump\t// in\n    tag_135:\n        /* \"#utility.yul\":2807:2926   */\n    tag_134:\n        /* \"#utility.yul\":2965:2966   */\n      0x00\n        /* \"#utility.yul\":2990:3054   */\n      tag_136\n        /* \"#utility.yul\":3046:3053   */\n      dup5\n        /* \"#utility.yul\":3037:3043   */\n      dup3\n        /* \"#utility.yul\":3026:3035   */\n      dup6\n        /* \"#utility.yul\":3022:3044   */\n      add\n        /* \"#utility.yul\":2990:3054   */\n      tag_83\n      jump\t// in\n    tag_136:\n        /* \"#utility.yul\":2980:3054   */\n      swap2\n      pop\n        /* \"#utility.yul\":2936:3064   */\n      pop\n        /* \"#utility.yul\":2720:3071   */\n      swap3\n      swap2\n      pop\n      pop\n      jump\t// out\n        /* \"#utility.yul\":3077:3246   */\n    tag_84:\n        /* \"#utility.yul\":3161:3172   */\n      0x00\n        /* \"#utility.yul\":3195:3201   */\n      dup3\n        /* \"#utility.yul\":3190:3193   */\n      dup3\n        /* \"#utility.yul\":3183:3202   */\n      mstore\n        /* \"#utility.yul\":3235:3239   */\n      0x20\n        /* \"#utility.yul\":3230:3233   */\n      dup3\n        /* \"#utility.yul\":3226:3240   */\n      add\n        /* \"#utility.yul\":3211:3240   */\n      swap1\n      pop\n        /* \"#utility.yul\":3077:3246   */\n      swap3\n      swap2\n      pop\n      pop\n      jump\t// out\n        /* \"#utility.yul\":3252:3472   */\n    tag_85:\n        /* \"#utility.yul\":3392:3426   */\n      0x4f6e6c7920746865206f776e65722063616e207769746864726177206d617465\n        /* \"#utility.yul\":3388:3389   */\n      0x00\n        /* \"#utility.yul\":3380:3386   */\n      dup3\n        /* \"#utility.yul\":3376:3390   */\n      add\n        /* \"#utility.yul\":3369:3427   */\n      mstore\n        /* \"#utility.yul\":3461:3464   */\n      0x2100000000000000000000000000000000000000000000000000000000000000\n        /* \"#utility.yul\":3456:3458   */\n      0x20\n        /* \"#utility.yul\":3448:3454   */\n      dup3\n        /* \"#utility.yul\":3444:3459   */\n      add\n        /* \"#utility.yul\":3437:3465   */\n      mstore\n        /* \"#utility.yul\":3252:3472   */\n      pop\n      jump\t// out\n        /* \"#utility.yul\":3478:3844   */\n    tag_86:\n        /* \"#utility.yul\":3620:3623   */\n      0x00\n        /* \"#utility.yul\":3641:3708   */\n      tag_140\n        /* \"#utility.yul\":3705:3707   */\n      0x21\n        /* \"#utility.yul\":3700:3703   */\n      dup4\n        /* \"#utility.yul\":3641:3708   */\n      tag_84\n      jump\t// in\n    tag_140:\n        /* \"#utility.yul\":3634:3708   */\n      swap2\n      pop\n        /* \"#utility.yul\":3717:3810   */\n      tag_141\n        /* \"#utility.yul\":3806:3809   */\n      dup3\n        /* \"#utility.yul\":3717:3810   */\n      tag_85\n      jump\t// in\n    tag_141:\n        /* \"#utility.yul\":3835:3837   */\n      0x40\n        /* \"#utility.yul\":3830:3833   */\n      dup3\n        /* \"#utility.yul\":3826:3838   */\n      add\n        /* \"#utility.yul\":3819:3838   */\n      swap1\n      pop\n        /* \"#utility.yul\":3478:3844   */\n      swap2\n      swap1\n      pop\n      jump\t// out\n        /* \"#utility.yul\":3850:4269   */\n    tag_48:\n        /* \"#utility.yul\":4016:4020   */\n      0x00\n        /* \"#utility.yul\":4054:4056   */\n      0x20\n        /* \"#utility.yul\":4043:4052   */\n      dup3\n        /* \"#utility.yul\":4039:4057   */\n      add\n        /* \"#utility.yul\":4031:4057   */\n      swap1\n      pop\n        /* \"#utility.yul\":4103:4112   */\n      dup2\n        /* \"#utility.yul\":4097:4101   */\n      dup2\n        /* \"#utility.yul\":4093:4113   */\n      sub\n        /* \"#utility.yul\":4089:4090   */\n      0x00\n        /* \"#utility.yul\":4078:4087   */\n      dup4\n        /* \"#utility.yul\":4074:4091   */\n      add\n        /* \"#utility.yul\":4067:4114   */\n      mstore\n        /* \"#utility.yul\":4131:4262   */\n      tag_143\n        /* \"#utility.yul\":4257:4261   */\n      dup2\n        /* \"#utility.yul\":4131:4262   */\n      tag_86\n      jump\t// in\n    tag_143:\n        /* \"#utility.yul\":4123:4262   */\n      swap1\n      pop\n        /* \"#utility.yul\":3850:4269   */\n      swap2\n      swap1\n      pop\n      jump\t// out\n        /* \"#utility.yul\":4275:4455   */\n    tag_87:\n        /* \"#utility.yul\":4323:4400   */\n      0x4e487b7100000000000000000000000000000000000000000000000000000000\n        /* \"#utility.yul\":4320:4321   */\n      0x00\n        /* \"#utility.yul\":4313:4401   */\n      mstore\n        /* \"#utility.yul\":4420:4424   */\n      0x11\n        /* \"#utility.yul\":4417:4418   */\n      0x04\n        /* \"#utility.yul\":4410:4425   */\n      mstore\n        /* \"#utility.yul\":4444:4448   */\n      0x24\n        /* \"#utility.yul\":4441:4442   */\n      0x00\n        /* \"#utility.yul\":4434:4449   */\n      revert\n        /* \"#utility.yul\":4461:4809   */\n    tag_54:\n        /* \"#utility.yul\":4501:4508   */\n      0x00\n        /* \"#utility.yul\":4524:4544   */\n      tag_146\n        /* \"#utility.yul\":4542:4543   */\n      dup3\n        /* \"#utility.yul\":4524:4544   */\n      tag_71\n      jump\t// in\n    tag_146:\n        /* \"#utility.yul\":4519:4544   */\n      swap2\n      pop\n        /* \"#utility.yul\":4558:4578   */\n      tag_147\n        /* \"#utility.yul\":4576:4577   */\n      dup4\n        /* \"#utility.yul\":4558:4578   */\n      tag_71\n      jump\t// in\n    tag_147:\n        /* \"#utility.yul\":4553:4578   */\n      swap3\n      pop\n        /* \"#utility.yul\":4746:4747   */\n      dup2\n        /* \"#utility.yul\":4678:4744   */\n      0xffffffffffffffffffffffffffffffffffffffffffffffffffffffffffffffff\n        /* \"#utility.yul\":4674:4748   */\n      div\n        /* \"#utility.yul\":4671:4672   */\n      dup4\n        /* \"#utility.yul\":4668:4749   */\n      gt\n        /* \"#utility.yul\":4663:4664   */\n      dup3\n        /* \"#utility.yul\":4656:4665   */\n      iszero\n        /* \"#utility.yul\":4649:4666   */\n      iszero\n        /* \"#utility.yul\":4645:4750   */\n      and\n        /* \"#utility.yul\":4642:4773   */\n      iszero\n      tag_148\n      jumpi\n        /* \"#utility.yul\":4753:4771   */\n      tag_149\n      tag_87\n      jump\t// in\n    tag_149:\n        /* \"#utility.yul\":4642:4773   */\n    tag_148:\n        /* \"#utility.yul\":4801:4802   */\n      dup3\n        /* \"#utility.yul\":4798:4799   */\n      dup3\n        /* \"#utility.yul\":4794:4803   */\n      mul\n        /* \"#utility.yul\":4783:4803   */\n      swap1\n      pop\n        /* \"#utility.yul\":4461:4809   */\n      swap3\n      swap2\n      pop\n      pop\n      jump\t// out\n        /* \"#utility.yul\":4815:4995   */\n    tag_88:\n        /* \"#utility.yul\":4863:4940   */\n      0x4e487b7100000000000000000000000000000000000000000000000000000000\n        /* \"#utility.yul\":4860:4861   */\n      0x00\n        /* \"#utility.yul\":4853:4941   */\n      mstore\n        /* \"#utility.yul\":4960:4964   */\n      0x12\n        /* \"#utility.yul\":4957:4958   */\n      0x04\n        /* \"#utility.yul\":4950:4965   */\n      mstore\n        /* \"#utility.yul\":4984:4988   */\n      0x24\n        /* \"#utility.yul\":4981:4982   */\n      0x00\n        /* \"#utility.yul\":4974:4989   */\n      revert\n        /* \"#utility.yul\":5001:5186   */\n    tag_56:\n        /* \"#utility.yul\":5041:5042   */\n      0x00\n        /* \"#utility.yul\":5058:5078   */\n      tag_152\n        /* \"#utility.yul\":5076:5077   */\n      dup3\n        /* \"#utility.yul\":5058:5078   */\n      tag_71\n      jump\t// in\n    tag_152:\n        /* \"#utility.yul\":5053:5078   */\n      swap2\n      pop\n        /* \"#utility.yul\":5092:5112   */\n      tag_153\n        /* \"#utility.yul\":5110:5111   */\n      dup4\n        /* \"#utility.yul\":5092:5112   */\n      tag_71\n      jump\t// in\n    tag_153:\n        /* \"#utility.yul\":5087:5112   */\n      swap3\n      pop\n        /* \"#utility.yul\":5131:5132   */\n      dup3\n        /* \"#utility.yul\":5121:5156   */\n      tag_154\n      jumpi\n        /* \"#utility.yul\":5136:5154   */\n      tag_155\n      tag_88\n      jump\t// in\n    tag_155:\n        /* \"#utility.yul\":5121:5156   */\n    tag_154:\n        /* \"#utility.yul\":5178:5179   */\n      dup3\n        /* \"#utility.yul\":5175:5176   */\n      dup3\n        /* \"#utility.yul\":5171:5180   */\n      div\n        /* \"#utility.yul\":5166:5180   */\n      swap1\n      pop\n        /* \"#utility.yul\":5001:5186   */\n      swap3\n      swap2\n      pop\n      pop\n      jump\t// out\n        /* \"#utility.yul\":5192:5297   */\n    tag_89:\n        /* \"#utility.yul\":5228:5235   */\n      0x00\n        /* \"#utility.yul\":5268:5290   */\n      0xffffffffffffffffffff\n        /* \"#utility.yul\":5261:5266   */\n      dup3\n        /* \"#utility.yul\":5257:5291   */\n      and\n        /* \"#utility.yul\":5246:5291   */\n      swap1\n      pop\n        /* \"#utility.yul\":5192:5297   */\n      swap2\n      swap1\n      pop\n      jump\t// out\n        /* \"#utility.yul\":5303:5423   */\n    tag_90:\n        /* \"#utility.yul\":5375:5398   */\n      tag_158\n        /* \"#utility.yul\":5392:5397   */\n      dup2\n        /* \"#utility.yul\":5375:5398   */\n      tag_89\n      jump\t// in\n    tag_158:\n        /* \"#utility.yul\":5368:5373   */\n      dup2\n        /* \"#utility.yul\":5365:5399   */\n      eq\n        /* \"#utility.yul\":5355:5417   */\n      tag_159\n      jumpi\n        /* \"#utility.yul\":5413:5414   */\n      0x00\n        /* \"#utility.yul\":5410:5411   */\n      dup1\n        /* \"#utility.yul\":5403:5415   */\n      revert\n        /* \"#utility.yul\":5355:5417   */\n    tag_159:\n        /* \"#utility.yul\":5303:5423   */\n      pop\n      jump\t// out\n        /* \"#utility.yul\":5429:5570   */\n    tag_91:\n        /* \"#utility.yul\":5485:5490   */\n      0x00\n        /* \"#utility.yul\":5516:5522   */\n      dup2\n        /* \"#utility.yul\":5510:5523   */\n      mload\n        /* \"#utility.yul\":5501:5523   */\n      swap1\n      pop\n        /* \"#utility.yul\":5532:5564   */\n      tag_161\n        /* \"#utility.yul\":5558:5563   */\n      dup2\n        /* \"#utility.yul\":5532:5564   */\n      tag_90\n      jump\t// in\n    tag_161:\n        /* \"#utility.yul\":5429:5570   */\n      swap3\n      swap2\n      pop\n      pop\n      jump\t// out\n        /* \"#utility.yul\":5576:5652   */\n    tag_92:\n        /* \"#utility.yul\":5612:5619   */\n      0x00\n        /* \"#utility.yul\":5641:5646   */\n      dup2\n        /* \"#utility.yul\":5630:5646   */\n      swap1\n      pop\n        /* \"#utility.yul\":5576:5652   */\n      swap2\n      swap1\n      pop\n      jump\t// out\n        /* \"#utility.yul\":5658:5778   */\n    tag_93:\n        /* \"#utility.yul\":5730:5753   */\n      tag_164\n        /* \"#utility.yul\":5747:5752   */\n      dup2\n        /* \"#utility.yul\":5730:5753   */\n      tag_92\n      jump\t// in\n    tag_164:\n        /* \"#utility.yul\":5723:5728   */\n      dup2\n        /* \"#utility.yul\":5720:5754   */\n      eq\n        /* \"#utility.yul\":5710:5772   */\n      tag_165\n      jumpi\n        /* \"#utility.yul\":5768:5769   */\n      0x00\n        /* \"#utility.yul\":5765:5766   */\n      dup1\n        /* \"#utility.yul\":5758:5770   */\n      revert\n        /* \"#utility.yul\":5710:5772   */\n    tag_165:\n        /* \"#utility.yul\":5658:5778   */\n      pop\n      jump\t// out\n        /* \"#utility.yul\":5784:5925   */\n    tag_94:\n        /* \"#utility.yul\":5840:5845   */\n      0x00\n        /* \"#utility.yul\":5871:5877   */\n      dup2\n        /* \"#utility.yul\":5865:5878   */\n      mload\n        /* \"#utility.yul\":5856:5878   */\n      swap1\n      pop\n        /* \"#utility.yul\":5887:5919   */\n      tag_167\n        /* \"#utility.yul\":5913:5918   */\n      dup2\n        /* \"#utility.yul\":5887:5919   */\n      tag_93\n      jump\t// in\n    tag_167:\n        /* \"#utility.yul\":5784:5925   */\n      swap3\n      swap2\n      pop\n      pop\n      jump\t// out\n        /* \"#utility.yul\":5931:6902   */\n    tag_61:\n        /* \"#utility.yul\":6034:6040   */\n      0x00\n        /* \"#utility.yul\":6042:6048   */\n      dup1\n        /* \"#utility.yul\":6050:6056   */\n      0x00\n        /* \"#utility.yul\":6058:6064   */\n      dup1\n        /* \"#utility.yul\":6066:6072   */\n      0x00\n        /* \"#utility.yul\":6115:6118   */\n      0xa0\n        /* \"#utility.yul\":6103:6112   */\n      dup7\n        /* \"#utility.yul\":6094:6101   */\n      dup9\n        /* \"#utility.yul\":6090:6113   */\n      sub\n        /* \"#utility.yul\":6086:6119   */\n      slt\n        /* \"#utility.yul\":6083:6203   */\n      iszero\n      tag_169\n      jumpi\n        /* \"#utility.yul\":6122:6201   */\n      tag_170\n      tag_74\n      jump\t// in\n    tag_170:\n        /* \"#utility.yul\":6083:6203   */\n    tag_169:\n        /* \"#utility.yul\":6242:6243   */\n      0x00\n        /* \"#utility.yul\":6267:6330   */\n      tag_171\n        /* \"#utility.yul\":6322:6329   */\n      dup9\n        /* \"#utility.yul\":6313:6319   */\n      dup3\n        /* \"#utility.yul\":6302:6311   */\n      dup10\n        /* \"#utility.yul\":6298:6320   */\n      add\n        /* \"#utility.yul\":6267:6330   */\n      tag_91\n      jump\t// in\n    tag_171:\n        /* \"#utility.yul\":6257:6330   */\n      swap6\n      pop\n        /* \"#utility.yul\":6213:6340   */\n      pop\n        /* \"#utility.yul\":6379:6381   */\n      0x20\n        /* \"#utility.yul\":6405:6468   */\n      tag_172\n        /* \"#utility.yul\":6460:6467   */\n      dup9\n        /* \"#utility.yul\":6451:6457   */\n      dup3\n        /* \"#utility.yul\":6440:6449   */\n      dup10\n        /* \"#utility.yul\":6436:6458   */\n      add\n        /* \"#utility.yul\":6405:6468   */\n      tag_94\n      jump\t// in\n    tag_172:\n        /* \"#utility.yul\":6395:6468   */\n      swap5\n      pop\n        /* \"#utility.yul\":6350:6478   */\n      pop\n        /* \"#utility.yul\":6517:6519   */\n      0x40\n        /* \"#utility.yul\":6543:6607   */\n      tag_173\n        /* \"#utility.yul\":6599:6606   */\n      dup9\n        /* \"#utility.yul\":6590:6596   */\n      dup3\n        /* \"#utility.yul\":6579:6588   */\n      dup10\n        /* \"#utility.yul\":6575:6597   */\n      add\n        /* \"#utility.yul\":6543:6607   */\n      tag_83\n      jump\t// in\n    tag_173:\n        /* \"#utility.yul\":6533:6607   */\n      swap4\n      pop\n        /* \"#utility.yul\":6488:6617   */\n      pop\n        /* \"#utility.yul\":6656:6658   */\n      0x60\n        /* \"#utility.yul\":6682:6746   */\n      tag_174\n        /* \"#utility.yul\":6738:6745   */\n      dup9\n        /* \"#utility.yul\":6729:6735   */\n      dup3\n        /* \"#utility.yul\":6718:6727   */\n      dup10\n        /* \"#utility.yul\":6714:6736   */\n      add\n        /* \"#utility.yul\":6682:6746   */\n      tag_83\n      jump\t// in\n    tag_174:\n        /* \"#utility.yul\":6672:6746   */\n      swap3\n      pop\n        /* \"#utility.yul\":6627:6756   */\n      pop\n        /* \"#utility.yul\":6795:6798   */\n      0x80\n        /* \"#utility.yul\":6822:6885   */\n      tag_175\n        /* \"#utility.yul\":6877:6884   */\n      dup9\n        /* \"#utility.yul\":6868:6874   */\n      dup3\n        /* \"#utility.yul\":6857:6866   */\n      dup10\n        /* \"#utility.yul\":6853:6875   */\n      add\n        /* \"#utility.yul\":6822:6885   */\n      tag_91\n      jump\t// in\n    tag_175:\n        /* \"#utility.yul\":6812:6885   */\n      swap2\n      pop\n        /* \"#utility.yul\":6766:6895   */\n      pop\n        /* \"#utility.yul\":5931:6902   */\n      swap3\n      swap6\n      pop\n      swap3\n      swap6\n      swap1\n      swap4\n      pop\n      jump\t// out\n        /* \"#utility.yul\":6908:7899   */\n    tag_63:\n        /* \"#utility.yul\":6947:6954   */\n      0x00\n        /* \"#utility.yul\":6970:6989   */\n      tag_177\n        /* \"#utility.yul\":6987:6988   */\n      dup3\n        /* \"#utility.yul\":6970:6989   */\n      tag_92\n      jump\t// in\n    tag_177:\n        /* \"#utility.yul\":6965:6989   */\n      swap2\n      pop\n        /* \"#utility.yul\":7003:7022   */\n      tag_178\n        /* \"#utility.yul\":7020:7021   */\n      dup4\n        /* \"#utility.yul\":7003:7022   */\n      tag_92\n      jump\t// in\n    tag_178:\n        /* \"#utility.yul\":6998:7022   */\n      swap3\n      pop\n        /* \"#utility.yul\":7204:7205   */\n      dup3\n        /* \"#utility.yul\":7136:7202   */\n      0x7fffffffffffffffffffffffffffffffffffffffffffffffffffffffffffffff\n        /* \"#utility.yul\":7132:7206   */\n      div\n        /* \"#utility.yul\":7129:7130   */\n      dup3\n        /* \"#utility.yul\":7126:7207   */\n      gt\n        /* \"#utility.yul\":7121:7122   */\n      0x00\n        /* \"#utility.yul\":7118:7119   */\n      dup5\n        /* \"#utility.yul\":7114:7123   */\n      sgt\n        /* \"#utility.yul\":7110:7111   */\n      0x00\n        /* \"#utility.yul\":7107:7108   */\n      dup5\n        /* \"#utility.yul\":7103:7112   */\n      sgt\n        /* \"#utility.yul\":7099:7124   */\n      and\n        /* \"#utility.yul\":7095:7208   */\n      and\n        /* \"#utility.yul\":7092:7231   */\n      iszero\n      tag_179\n      jumpi\n        /* \"#utility.yul\":7211:7229   */\n      tag_180\n      tag_87\n      jump\t// in\n    tag_180:\n        /* \"#utility.yul\":7092:7231   */\n    tag_179:\n        /* \"#utility.yul\":7415:7416   */\n      dup2\n        /* \"#utility.yul\":7347:7413   */\n      0x8000000000000000000000000000000000000000000000000000000000000000\n        /* \"#utility.yul\":7342:7417   */\n      sdiv\n        /* \"#utility.yul\":7339:7340   */\n      dup4\n        /* \"#utility.yul\":7335:7418   */\n      slt\n        /* \"#utility.yul\":7330:7331   */\n      0x00\n        /* \"#utility.yul\":7327:7328   */\n      dup5\n        /* \"#utility.yul\":7323:7332   */\n      slt\n        /* \"#utility.yul\":7319:7320   */\n      0x00\n        /* \"#utility.yul\":7316:7317   */\n      dup5\n        /* \"#utility.yul\":7312:7321   */\n      sgt\n        /* \"#utility.yul\":7308:7333   */\n      and\n        /* \"#utility.yul\":7304:7419   */\n      and\n        /* \"#utility.yul\":7301:7442   */\n      iszero\n      tag_181\n      jumpi\n        /* \"#utility.yul\":7422:7440   */\n      tag_182\n      tag_87\n      jump\t// in\n    tag_182:\n        /* \"#utility.yul\":7301:7442   */\n    tag_181:\n        /* \"#utility.yul\":7626:7627   */\n      dup3\n        /* \"#utility.yul\":7558:7624   */\n      0x8000000000000000000000000000000000000000000000000000000000000000\n        /* \"#utility.yul\":7553:7628   */\n      sdiv\n        /* \"#utility.yul\":7550:7551   */\n      dup3\n        /* \"#utility.yul\":7546:7629   */\n      slt\n        /* \"#utility.yul\":7541:7542   */\n      0x00\n        /* \"#utility.yul\":7538:7539   */\n      dup5\n        /* \"#utility.yul\":7534:7543   */\n      sgt\n        /* \"#utility.yul\":7530:7531   */\n      0x00\n        /* \"#utility.yul\":7527:7528   */\n      dup5\n        /* \"#utility.yul\":7523:7532   */\n      slt\n        /* \"#utility.yul\":7519:7544   */\n      and\n        /* \"#utility.yul\":7515:7630   */\n      and\n        /* \"#utility.yul\":7512:7653   */\n      iszero\n      tag_183\n      jumpi\n        /* \"#utility.yul\":7633:7651   */\n      tag_184\n      tag_87\n      jump\t// in\n    tag_184:\n        /* \"#utility.yul\":7512:7653   */\n    tag_183:\n        /* \"#utility.yul\":7836:7837   */\n      dup3\n        /* \"#utility.yul\":7768:7834   */\n      0x7fffffffffffffffffffffffffffffffffffffffffffffffffffffffffffffff\n        /* \"#utility.yul\":7763:7838   */\n      sdiv\n        /* \"#utility.yul\":7760:7761   */\n      dup3\n        /* \"#utility.yul\":7756:7839   */\n      slt\n        /* \"#utility.yul\":7751:7752   */\n      0x00\n        /* \"#utility.yul\":7748:7749   */\n      dup5\n        /* \"#utility.yul\":7744:7753   */\n      slt\n        /* \"#utility.yul\":7740:7741   */\n      0x00\n        /* \"#utility.yul\":7737:7738   */\n      dup5\n        /* \"#utility.yul\":7733:7742   */\n      slt\n        /* \"#utility.yul\":7729:7754   */\n      and\n        /* \"#utility.yul\":7725:7840   */\n      and\n        /* \"#utility.yul\":7722:7863   */\n      iszero\n      tag_185\n      jumpi\n        /* \"#utility.yul\":7843:7861   */\n      tag_186\n      tag_87\n      jump\t// in\n    tag_186:\n        /* \"#utility.yul\":7722:7863   */\n    tag_185:\n        /* \"#utility.yul\":7891:7892   */\n      dup3\n        /* \"#utility.yul\":7888:7889   */\n      dup3\n        /* \"#utility.yul\":7884:7893   */\n      mul\n        /* \"#utility.yul\":7873:7893   */\n      swap1\n      pop\n        /* \"#utility.yul\":6908:7899   */\n      swap3\n      swap2\n      pop\n      pop\n      jump\t// out\n        /* \"#utility.yul\":7905:8210   */\n    tag_66:\n        /* \"#utility.yul\":7945:7948   */\n      0x00\n        /* \"#utility.yul\":7964:7984   */\n      tag_188\n        /* \"#utility.yul\":7982:7983   */\n      dup3\n        /* \"#utility.yul\":7964:7984   */\n      tag_71\n      jump\t// in\n    tag_188:\n        /* \"#utility.yul\":7959:7984   */\n      swap2\n      pop\n        /* \"#utility.yul\":7998:8018   */\n      tag_189\n        /* \"#utility.yul\":8016:8017   */\n      dup4\n        /* \"#utility.yul\":7998:8018   */\n      tag_71\n      jump\t// in\n    tag_189:\n        /* \"#utility.yul\":7993:8018   */\n      swap3\n      pop\n        /* \"#utility.yul\":8152:8153   */\n      dup3\n        /* \"#utility.yul\":8084:8150   */\n      0xffffffffffffffffffffffffffffffffffffffffffffffffffffffffffffffff\n        /* \"#utility.yul\":8080:8154   */\n      sub\n        /* \"#utility.yul\":8077:8078   */\n      dup3\n        /* \"#utility.yul\":8074:8155   */\n      gt\n        /* \"#utility.yul\":8071:8178   */\n      iszero\n      tag_190\n      jumpi\n        /* \"#utility.yul\":8158:8176   */\n      tag_191\n      tag_87\n      jump\t// in\n    tag_191:\n        /* \"#utility.yul\":8071:8178   */\n    tag_190:\n        /* \"#utility.yul\":8202:8203   */\n      dup3\n        /* \"#utility.yul\":8199:8200   */\n      dup3\n        /* \"#utility.yul\":8195:8204   */\n      add\n        /* \"#utility.yul\":8188:8204   */\n      swap1\n      pop\n        /* \"#utility.yul\":7905:8210   */\n      swap3\n      swap2\n      pop\n      pop\n      jump\t// out\n        /* \"#utility.yul\":8216:8457   */\n    tag_95:\n        /* \"#utility.yul\":8356:8390   */\n      0x596f75206e65656420746f207370656e64206d6f726520455448212c20697420\n        /* \"#utility.yul\":8352:8353   */\n      0x00\n        /* \"#utility.yul\":8344:8350   */\n      dup3\n        /* \"#utility.yul\":8340:8354   */\n      add\n        /* \"#utility.yul\":8333:8391   */\n      mstore\n        /* \"#utility.yul\":8425:8449   */\n      0x73686f756c64206265206d6f7265207468616e20243100000000000000000000\n        /* \"#utility.yul\":8420:8422   */\n      0x20\n        /* \"#utility.yul\":8412:8418   */\n      dup3\n        /* \"#utility.yul\":8408:8423   */\n      add\n        /* \"#utility.yul\":8401:8450   */\n      mstore\n        /* \"#utility.yul\":8216:8457   */\n      pop\n      jump\t// out\n        /* \"#utility.yul\":8463:8829   */\n    tag_96:\n        /* \"#utility.yul\":8605:8608   */\n      0x00\n        /* \"#utility.yul\":8626:8693   */\n      tag_194\n        /* \"#utility.yul\":8690:8692   */\n      0x36\n        /* \"#utility.yul\":8685:8688   */\n      dup4\n        /* \"#utility.yul\":8626:8693   */\n      tag_84\n      jump\t// in\n    tag_194:\n        /* \"#utility.yul\":8619:8693   */\n      swap2\n      pop\n        /* \"#utility.yul\":8702:8795   */\n      tag_195\n        /* \"#utility.yul\":8791:8794   */\n      dup3\n        /* \"#utility.yul\":8702:8795   */\n      tag_95\n      jump\t// in\n    tag_195:\n        /* \"#utility.yul\":8820:8822   */\n      0x40\n        /* \"#utility.yul\":8815:8818   */\n      dup3\n        /* \"#utility.yul\":8811:8823   */\n      add\n        /* \"#utility.yul\":8804:8823   */\n      swap1\n      pop\n        /* \"#utility.yul\":8463:8829   */\n      swap2\n      swap1\n      pop\n      jump\t// out\n        /* \"#utility.yul\":8835:9254   */\n    tag_70:\n        /* \"#utility.yul\":9001:9005   */\n      0x00\n        /* \"#utility.yul\":9039:9041   */\n      0x20\n        /* \"#utility.yul\":9028:9037   */\n      dup3\n        /* \"#utility.yul\":9024:9042   */\n      add\n        /* \"#utility.yul\":9016:9042   */\n      swap1\n      pop\n        /* \"#utility.yul\":9088:9097   */\n      dup2\n        /* \"#utility.yul\":9082:9086   */\n      dup2\n        /* \"#utility.yul\":9078:9098   */\n      sub\n        /* \"#utility.yul\":9074:9075   */\n      0x00\n        /* \"#utility.yul\":9063:9072   */\n      dup4\n        /* \"#utility.yul\":9059:9076   */\n      add\n        /* \"#utility.yul\":9052:9099   */\n      mstore\n        /* \"#utility.yul\":9116:9247   */\n      tag_197\n        /* \"#utility.yul\":9242:9246   */\n      dup2\n        /* \"#utility.yul\":9116:9247   */\n      tag_96\n      jump\t// in\n    tag_197:\n        /* \"#utility.yul\":9108:9247   */\n      swap1\n      pop\n        /* \"#utility.yul\":8835:9254   */\n      swap2\n      swap1\n      pop\n      jump\t// out\n\n    auxdata: 0xa2646970667358221220a717626bea2dd0f678be941b1f514fee97a57955d03b78ee24ee0338eda16e1764736f6c634300080d0033\n}\n",
				"bytecode": {
					"linkReferences": {},
					"object": "608060405234801561001057600080fd5b5033600160006101000a81548173ffffffffffffffffffffffffffffffffffffffff021916908373ffffffffffffffffffffffffffffffffffffffff160217905550610afa806100616000396000f3fe6080604052600436106100705760003560e01c80636e5b6b281161004e5780636e5b6b28146100e75780638da5cb5b1461012457806398d5fdca1461014f578063b60d42881461017a57610070565b80630d8e6e2c146100755780633ccfd60b146100a05780633e47d6f3146100aa575b600080fd5b34801561008157600080fd5b5061008a610184565b60405161009791906104d6565b60405180910390f35b6100a8610213565b005b3480156100b657600080fd5b506100d160048036038101906100cc9190610554565b6102ec565b6040516100de91906104d6565b60405180910390f35b3480156100f357600080fd5b5061010e600480360381019061010991906105ad565b610304565b60405161011b91906104d6565b60405180910390f35b34801561013057600080fd5b5061013961033e565b60405161014691906105e9565b60405180910390f35b34801561015b57600080fd5b50610164610364565b60405161017191906104d6565b60405180910390f35b61018261040d565b005b600080738a753747a1fa494ec906ce90e9f37563a8af630e90508073ffffffffffffffffffffffffffffffffffffffff166354fd4d506040518163ffffffff1660e01b8152600401602060405180830381865afa1580156101e9573d6000803e3d6000fd5b505050506040513d601f19601f8201168201806040525081019061020d9190610619565b91505090565b600160009054906101000a900473ffffffffffffffffffffffffffffffffffffffff1673ffffffffffffffffffffffffffffffffffffffff163373ffffffffffffffffffffffffffffffffffffffff16146102a3576040517f08c379a000000000000000000000000000000000000000000000000000000000815260040161029a906106c9565b60405180910390fd5b3373ffffffffffffffffffffffffffffffffffffffff166108fc479081150290604051600060405180830381858888f193505050501580156102e9573d6000803e3d6000fd5b50565b60006020528060005260406000206000915090505481565b60008061030f610364565b90506000670de0b6b3a764000084836103289190610718565b61033291906107a1565b90508092505050919050565b600160009054906101000a900473ffffffffffffffffffffffffffffffffffffffff1681565b600080738a753747a1fa494ec906ce90e9f37563a8af630e905060008173ffffffffffffffffffffffffffffffffffffffff1663feaf968c6040518163ffffffff1660e01b815260040160a060405180830381865afa1580156103cb573d6000803e3d6000fd5b505050506040513d601f19601f820116820180604052508101906103ef919061084a565b5050509150506402540be4008161040691906108c5565b9250505090565b346000803373ffffffffffffffffffffffffffffffffffffffff1673ffffffffffffffffffffffffffffffffffffffff168152602001908152602001600020600082825461045b91906109dc565b925050819055506000670de0b6b3a764000090508061047934610304565b10156104ba576040517f08c379a00000000000000000000000000000000000000000000000000000000081526004016104b190610aa4565b60405180910390fd5b50565b6000819050919050565b6104d0816104bd565b82525050565b60006020820190506104eb60008301846104c7565b92915050565b600080fd5b600073ffffffffffffffffffffffffffffffffffffffff82169050919050565b6000610521826104f6565b9050919050565b61053181610516565b811461053c57600080fd5b50565b60008135905061054e81610528565b92915050565b60006020828403121561056a576105696104f1565b5b60006105788482850161053f565b91505092915050565b61058a816104bd565b811461059557600080fd5b50565b6000813590506105a781610581565b92915050565b6000602082840312156105c3576105c26104f1565b5b60006105d184828501610598565b91505092915050565b6105e381610516565b82525050565b60006020820190506105fe60008301846105da565b92915050565b60008151905061061381610581565b92915050565b60006020828403121561062f5761062e6104f1565b5b600061063d84828501610604565b91505092915050565b600082825260208201905092915050565b7f4f6e6c7920746865206f776e65722063616e207769746864726177206d61746560008201527f2100000000000000000000000000000000000000000000000000000000000000602082015250565b60006106b3602183610646565b91506106be82610657565b604082019050919050565b600060208201905081810360008301526106e2816106a6565b9050919050565b7f4e487b7100000000000000000000000000000000000000000000000000000000600052601160045260246000fd5b6000610723826104bd565b915061072e836104bd565b9250817fffffffffffffffffffffffffffffffffffffffffffffffffffffffffffffffff0483118215151615610767576107666106e9565b5b828202905092915050565b7f4e487b7100000000000000000000000000000000000000000000000000000000600052601260045260246000fd5b60006107ac826104bd565b91506107b7836104bd565b9250826107c7576107c6610772565b5b828204905092915050565b600069ffffffffffffffffffff82169050919050565b6107f1816107d2565b81146107fc57600080fd5b50565b60008151905061080e816107e8565b92915050565b6000819050919050565b61082781610814565b811461083257600080fd5b50565b6000815190506108448161081e565b92915050565b600080600080600060a08688031215610866576108656104f1565b5b6000610874888289016107ff565b955050602061088588828901610835565b945050604061089688828901610604565b93505060606108a788828901610604565b92505060806108b8888289016107ff565b9150509295509295909350565b60006108d082610814565b91506108db83610814565b9250827f7fffffffffffffffffffffffffffffffffffffffffffffffffffffffffffffff048211600084136000841316161561091a576109196106e9565b5b817f80000000000000000000000000000000000000000000000000000000000000000583126000841260008413161615610957576109566106e9565b5b827f80000000000000000000000000000000000000000000000000000000000000000582126000841360008412161615610994576109936106e9565b5b827f7fffffffffffffffffffffffffffffffffffffffffffffffffffffffffffffff05821260008412600084121616156109d1576109d06106e9565b5b828202905092915050565b60006109e7826104bd565b91506109f2836104bd565b9250827fffffffffffffffffffffffffffffffffffffffffffffffffffffffffffffffff03821115610a2757610a266106e9565b5b828201905092915050565b7f596f75206e65656420746f207370656e64206d6f726520455448212c2069742060008201527f73686f756c64206265206d6f7265207468616e20243100000000000000000000602082015250565b6000610a8e603683610646565b9150610a9982610a32565b604082019050919050565b60006020820190508181036000830152610abd81610a81565b905091905056fea2646970667358221220a717626bea2dd0f678be941b1f514fee97a57955d03b78ee24ee0338eda16e1764736f6c634300080d0033",
					"opcodes": "PUSH1 0x80 PUSH1 0x40 MSTORE CALLVALUE DUP1 ISZERO PUSH2 0x10 JUMPI PUSH1 0x0 DUP1 REVERT JUMPDEST POP CALLER PUSH1 0x1 PUSH1 0x0 PUSH2 0x100 EXP DUP2 SLOAD DUP2 PUSH20 0xFFFFFFFFFFFFFFFFFFFFFFFFFFFFFFFFFFFFFFFF MUL NOT AND SWAP1 DUP4 PUSH20 0xFFFFFFFFFFFFFFFFFFFFFFFFFFFFFFFFFFFFFFFF AND MUL OR SWAP1 SSTORE POP PUSH2 0xAFA DUP1 PUSH2 0x61 PUSH1 0x0 CODECOPY PUSH1 0x0 RETURN INVALID PUSH1 0x80 PUSH1 0x40 MSTORE PUSH1 0x4 CALLDATASIZE LT PUSH2 0x70 JUMPI PUSH1 0x0 CALLDATALOAD PUSH1 0xE0 SHR DUP1 PUSH4 0x6E5B6B28 GT PUSH2 0x4E JUMPI DUP1 PUSH4 0x6E5B6B28 EQ PUSH2 0xE7 JUMPI DUP1 PUSH4 0x8DA5CB5B EQ PUSH2 0x124 JUMPI DUP1 PUSH4 0x98D5FDCA EQ PUSH2 0x14F JUMPI DUP1 PUSH4 0xB60D4288 EQ PUSH2 0x17A JUMPI PUSH2 0x70 JUMP JUMPDEST DUP1 PUSH4 0xD8E6E2C EQ PUSH2 0x75 JUMPI DUP1 PUSH4 0x3CCFD60B EQ PUSH2 0xA0 JUMPI DUP1 PUSH4 0x3E47D6F3 EQ PUSH2 0xAA JUMPI JUMPDEST PUSH1 0x0 DUP1 REVERT JUMPDEST CALLVALUE DUP1 ISZERO PUSH2 0x81 JUMPI PUSH1 0x0 DUP1 REVERT JUMPDEST POP PUSH2 0x8A PUSH2 0x184 JUMP JUMPDEST PUSH1 0x40 MLOAD PUSH2 0x97 SWAP2 SWAP1 PUSH2 0x4D6 JUMP JUMPDEST PUSH1 0x40 MLOAD DUP1 SWAP2 SUB SWAP1 RETURN JUMPDEST PUSH2 0xA8 PUSH2 0x213 JUMP JUMPDEST STOP JUMPDEST CALLVALUE DUP1 ISZERO PUSH2 0xB6 JUMPI PUSH1 0x0 DUP1 REVERT JUMPDEST POP PUSH2 0xD1 PUSH1 0x4 DUP1 CALLDATASIZE SUB DUP2 ADD SWAP1 PUSH2 0xCC SWAP2 SWAP1 PUSH2 0x554 JUMP JUMPDEST PUSH2 0x2EC JUMP JUMPDEST PUSH1 0x40 MLOAD PUSH2 0xDE SWAP2 SWAP1 PUSH2 0x4D6 JUMP JUMPDEST PUSH1 0x40 MLOAD DUP1 SWAP2 SUB SWAP1 RETURN JUMPDEST CALLVALUE DUP1 ISZERO PUSH2 0xF3 JUMPI PUSH1 0x0 DUP1 REVERT JUMPDEST POP PUSH2 0x10E PUSH1 0x4 DUP1 CALLDATASIZE SUB DUP2 ADD SWAP1 PUSH2 0x109 SWAP2 SWAP1 PUSH2 0x5AD JUMP JUMPDEST PUSH2 0x304 JUMP JUMPDEST PUSH1 0x40 MLOAD PUSH2 0x11B SWAP2 SWAP1 PUSH2 0x4D6 JUMP JUMPDEST PUSH1 0x40 MLOAD DUP1 SWAP2 SUB SWAP1 RETURN JUMPDEST CALLVALUE DUP1 ISZERO PUSH2 0x130 JUMPI PUSH1 0x0 DUP1 REVERT JUMPDEST POP PUSH2 0x139 PUSH2 0x33E JUMP JUMPDEST PUSH1 0x40 MLOAD PUSH2 0x146 SWAP2 SWAP1 PUSH2 0x5E9 JUMP JUMPDEST PUSH1 0x40 MLOAD DUP1 SWAP2 SUB SWAP1 RETURN JUMPDEST CALLVALUE DUP1 ISZERO PUSH2 0x15B JUMPI PUSH1 0x0 DUP1 REVERT JUMPDEST POP PUSH2 0x164 PUSH2 0x364 JUMP JUMPDEST PUSH1 0x40 MLOAD PUSH2 0x171 SWAP2 SWAP1 PUSH2 0x4D6 JUMP JUMPDEST PUSH1 0x40 MLOAD DUP1 SWAP2 SUB SWAP1 RETURN JUMPDEST PUSH2 0x182 PUSH2 0x40D JUMP JUMPDEST STOP JUMPDEST PUSH1 0x0 DUP1 PUSH20 0x8A753747A1FA494EC906CE90E9F37563A8AF630E SWAP1 POP DUP1 PUSH20 0xFFFFFFFFFFFFFFFFFFFFFFFFFFFFFFFFFFFFFFFF AND PUSH4 0x54FD4D50 PUSH1 0x40 MLOAD DUP2 PUSH4 0xFFFFFFFF AND PUSH1 0xE0 SHL DUP2 MSTORE PUSH1 0x4 ADD PUSH1 0x20 PUSH1 0x40 MLOAD DUP1 DUP4 SUB DUP2 DUP7 GAS STATICCALL ISZERO DUP1 ISZERO PUSH2 0x1E9 JUMPI RETURNDATASIZE PUSH1 0x0 DUP1 RETURNDATACOPY RETURNDATASIZE PUSH1 0x0 REVERT JUMPDEST POP POP POP POP PUSH1 0x40 MLOAD RETURNDATASIZE PUSH1 0x1F NOT PUSH1 0x1F DUP3 ADD AND DUP3 ADD DUP1 PUSH1 0x40 MSTORE POP DUP2 ADD SWAP1 PUSH2 0x20D SWAP2 SWAP1 PUSH2 0x619 JUMP JUMPDEST SWAP2 POP POP SWAP1 JUMP JUMPDEST PUSH1 0x1 PUSH1 0x0 SWAP1 SLOAD SWAP1 PUSH2 0x100 EXP SWAP1 DIV PUSH20 0xFFFFFFFFFFFFFFFFFFFFFFFFFFFFFFFFFFFFFFFF AND PUSH20 0xFFFFFFFFFFFFFFFFFFFFFFFFFFFFFFFFFFFFFFFF AND CALLER PUSH20 0xFFFFFFFFFFFFFFFFFFFFFFFFFFFFFFFFFFFFFFFF AND EQ PUSH2 0x2A3 JUMPI PUSH1 0x40 MLOAD PUSH32 0x8C379A000000000000000000000000000000000000000000000000000000000 DUP2 MSTORE PUSH1 0x4 ADD PUSH2 0x29A SWAP1 PUSH2 0x6C9 JUMP JUMPDEST PUSH1 0x40 MLOAD DUP1 SWAP2 SUB SWAP1 REVERT JUMPDEST CALLER PUSH20 0xFFFFFFFFFFFFFFFFFFFFFFFFFFFFFFFFFFFFFFFF AND PUSH2 0x8FC SELFBALANCE SWAP1 DUP2 ISZERO MUL SWAP1 PUSH1 0x40 MLOAD PUSH1 0x0 PUSH1 0x40 MLOAD DUP1 DUP4 SUB DUP2 DUP6 DUP9 DUP9 CALL SWAP4 POP POP POP POP ISZERO DUP1 ISZERO PUSH2 0x2E9 JUMPI RETURNDATASIZE PUSH1 0x0 DUP1 RETURNDATACOPY RETURNDATASIZE PUSH1 0x0 REVERT JUMPDEST POP JUMP JUMPDEST PUSH1 0x0 PUSH1 0x20 MSTORE DUP1 PUSH1 0x0 MSTORE PUSH1 0x40 PUSH1 0x0 KECCAK256 PUSH1 0x0 SWAP2 POP SWAP1 POP SLOAD DUP2 JUMP JUMPDEST PUSH1 0x0 DUP1 PUSH2 0x30F PUSH2 0x364 JUMP JUMPDEST SWAP1 POP PUSH1 0x0 PUSH8 0xDE0B6B3A7640000 DUP5 DUP4 PUSH2 0x328 SWAP2 SWAP1 PUSH2 0x718 JUMP JUMPDEST PUSH2 0x332 SWAP2 SWAP1 PUSH2 0x7A1 JUMP JUMPDEST SWAP1 POP DUP1 SWAP3 POP POP POP SWAP2 SWAP1 POP JUMP JUMPDEST PUSH1 0x1 PUSH1 0x0 SWAP1 SLOAD SWAP1 PUSH2 0x100 EXP SWAP1 DIV PUSH20 0xFFFFFFFFFFFFFFFFFFFFFFFFFFFFFFFFFFFFFFFF AND DUP2 JUMP JUMPDEST PUSH1 0x0 DUP1 PUSH20 0x8A753747A1FA494EC906CE90E9F37563A8AF630E SWAP1 POP PUSH1 0x0 DUP2 PUSH20 0xFFFFFFFFFFFFFFFFFFFFFFFFFFFFFFFFFFFFFFFF AND PUSH4 0xFEAF968C PUSH1 0x40 MLOAD DUP2 PUSH4 0xFFFFFFFF AND PUSH1 0xE0 SHL DUP2 MSTORE PUSH1 0x4 ADD PUSH1 0xA0 PUSH1 0x40 MLOAD DUP1 DUP4 SUB DUP2 DUP7 GAS STATICCALL ISZERO DUP1 ISZERO PUSH2 0x3CB JUMPI RETURNDATASIZE PUSH1 0x0 DUP1 RETURNDATACOPY RETURNDATASIZE PUSH1 0x0 REVERT JUMPDEST POP POP POP POP PUSH1 0x40 MLOAD RETURNDATASIZE PUSH1 0x1F NOT PUSH1 0x1F DUP3 ADD AND DUP3 ADD DUP1 PUSH1 0x40 MSTORE POP DUP2 ADD SWAP1 PUSH2 0x3EF SWAP2 SWAP1 PUSH2 0x84A JUMP JUMPDEST POP POP POP SWAP2 POP POP PUSH5 0x2540BE400 DUP2 PUSH2 0x406 SWAP2 SWAP1 PUSH2 0x8C5 JUMP JUMPDEST SWAP3 POP POP POP SWAP1 JUMP JUMPDEST CALLVALUE PUSH1 0x0 DUP1 CALLER PUSH20 0xFFFFFFFFFFFFFFFFFFFFFFFFFFFFFFFFFFFFFFFF AND PUSH20 0xFFFFFFFFFFFFFFFFFFFFFFFFFFFFFFFFFFFFFFFF AND DUP2 MSTORE PUSH1 0x20 ADD SWAP1 DUP2 MSTORE PUSH1 0x20 ADD PUSH1 0x0 KECCAK256 PUSH1 0x0 DUP3 DUP3 SLOAD PUSH2 0x45B SWAP2 SWAP1 PUSH2 0x9DC JUMP JUMPDEST SWAP3 POP POP DUP2 SWAP1 SSTORE POP PUSH1 0x0 PUSH8 0xDE0B6B3A7640000 SWAP1 POP DUP1 PUSH2 0x479 CALLVALUE PUSH2 0x304 JUMP JUMPDEST LT ISZERO PUSH2 0x4BA JUMPI PUSH1 0x40 MLOAD PUSH32 0x8C379A000000000000000000000000000000000000000000000000000000000 DUP2 MSTORE PUSH1 0x4 ADD PUSH2 0x4B1 SWAP1 PUSH2 0xAA4 JUMP JUMPDEST PUSH1 0x40 MLOAD DUP1 SWAP2 SUB SWAP1 REVERT JUMPDEST POP JUMP JUMPDEST PUSH1 0x0 DUP2 SWAP1 POP SWAP2 SWAP1 POP JUMP JUMPDEST PUSH2 0x4D0 DUP2 PUSH2 0x4BD JUMP JUMPDEST DUP3 MSTORE POP POP JUMP JUMPDEST PUSH1 0x0 PUSH1 0x20 DUP3 ADD SWAP1 POP PUSH2 0x4EB PUSH1 0x0 DUP4 ADD DUP5 PUSH2 0x4C7 JUMP JUMPDEST SWAP3 SWAP2 POP POP JUMP JUMPDEST PUSH1 0x0 DUP1 REVERT JUMPDEST PUSH1 0x0 PUSH20 0xFFFFFFFFFFFFFFFFFFFFFFFFFFFFFFFFFFFFFFFF DUP3 AND SWAP1 POP SWAP2 SWAP1 POP JUMP JUMPDEST PUSH1 0x0 PUSH2 0x521 DUP3 PUSH2 0x4F6 JUMP JUMPDEST SWAP1 POP SWAP2 SWAP1 POP JUMP JUMPDEST PUSH2 0x531 DUP2 PUSH2 0x516 JUMP JUMPDEST DUP2 EQ PUSH2 0x53C JUMPI PUSH1 0x0 DUP1 REVERT JUMPDEST POP JUMP JUMPDEST PUSH1 0x0 DUP2 CALLDATALOAD SWAP1 POP PUSH2 0x54E DUP2 PUSH2 0x528 JUMP JUMPDEST SWAP3 SWAP2 POP POP JUMP JUMPDEST PUSH1 0x0 PUSH1 0x20 DUP3 DUP5 SUB SLT ISZERO PUSH2 0x56A JUMPI PUSH2 0x569 PUSH2 0x4F1 JUMP JUMPDEST JUMPDEST PUSH1 0x0 PUSH2 0x578 DUP5 DUP3 DUP6 ADD PUSH2 0x53F JUMP JUMPDEST SWAP2 POP POP SWAP3 SWAP2 POP POP JUMP JUMPDEST PUSH2 0x58A DUP2 PUSH2 0x4BD JUMP JUMPDEST DUP2 EQ PUSH2 0x595 JUMPI PUSH1 0x0 DUP1 REVERT JUMPDEST POP JUMP JUMPDEST PUSH1 0x0 DUP2 CALLDATALOAD SWAP1 POP PUSH2 0x5A7 DUP2 PUSH2 0x581 JUMP JUMPDEST SWAP3 SWAP2 POP POP JUMP JUMPDEST PUSH1 0x0 PUSH1 0x20 DUP3 DUP5 SUB SLT ISZERO PUSH2 0x5C3 JUMPI PUSH2 0x5C2 PUSH2 0x4F1 JUMP JUMPDEST JUMPDEST PUSH1 0x0 PUSH2 0x5D1 DUP5 DUP3 DUP6 ADD PUSH2 0x598 JUMP JUMPDEST SWAP2 POP POP SWAP3 SWAP2 POP POP JUMP JUMPDEST PUSH2 0x5E3 DUP2 PUSH2 0x516 JUMP JUMPDEST DUP3 MSTORE POP POP JUMP JUMPDEST PUSH1 0x0 PUSH1 0x20 DUP3 ADD SWAP1 POP PUSH2 0x5FE PUSH1 0x0 DUP4 ADD DUP5 PUSH2 0x5DA JUMP JUMPDEST SWAP3 SWAP2 POP POP JUMP JUMPDEST PUSH1 0x0 DUP2 MLOAD SWAP1 POP PUSH2 0x613 DUP2 PUSH2 0x581 JUMP JUMPDEST SWAP3 SWAP2 POP POP JUMP JUMPDEST PUSH1 0x0 PUSH1 0x20 DUP3 DUP5 SUB SLT ISZERO PUSH2 0x62F JUMPI PUSH2 0x62E PUSH2 0x4F1 JUMP JUMPDEST JUMPDEST PUSH1 0x0 PUSH2 0x63D DUP5 DUP3 DUP6 ADD PUSH2 0x604 JUMP JUMPDEST SWAP2 POP POP SWAP3 SWAP2 POP POP JUMP JUMPDEST PUSH1 0x0 DUP3 DUP3 MSTORE PUSH1 0x20 DUP3 ADD SWAP1 POP SWAP3 SWAP2 POP POP JUMP JUMPDEST PUSH32 0x4F6E6C7920746865206F776E65722063616E207769746864726177206D617465 PUSH1 0x0 DUP3 ADD MSTORE PUSH32 0x2100000000000000000000000000000000000000000000000000000000000000 PUSH1 0x20 DUP3 ADD MSTORE POP JUMP JUMPDEST PUSH1 0x0 PUSH2 0x6B3 PUSH1 0x21 DUP4 PUSH2 0x646 JUMP JUMPDEST SWAP2 POP PUSH2 0x6BE DUP3 PUSH2 0x657 JUMP JUMPDEST PUSH1 0x40 DUP3 ADD SWAP1 POP SWAP2 SWAP1 POP JUMP JUMPDEST PUSH1 0x0 PUSH1 0x20 DUP3 ADD SWAP1 POP DUP2 DUP2 SUB PUSH1 0x0 DUP4 ADD MSTORE PUSH2 0x6E2 DUP2 PUSH2 0x6A6 JUMP JUMPDEST SWAP1 POP SWAP2 SWAP1 POP JUMP JUMPDEST PUSH32 0x4E487B7100000000000000000000000000000000000000000000000000000000 PUSH1 0x0 MSTORE PUSH1 0x11 PUSH1 0x4 MSTORE PUSH1 0x24 PUSH1 0x0 REVERT JUMPDEST PUSH1 0x0 PUSH2 0x723 DUP3 PUSH2 0x4BD JUMP JUMPDEST SWAP2 POP PUSH2 0x72E DUP4 PUSH2 0x4BD JUMP JUMPDEST SWAP3 POP DUP2 PUSH32 0xFFFFFFFFFFFFFFFFFFFFFFFFFFFFFFFFFFFFFFFFFFFFFFFFFFFFFFFFFFFFFFFF DIV DUP4 GT DUP3 ISZERO ISZERO AND ISZERO PUSH2 0x767 JUMPI PUSH2 0x766 PUSH2 0x6E9 JUMP JUMPDEST JUMPDEST DUP3 DUP3 MUL SWAP1 POP SWAP3 SWAP2 POP POP JUMP JUMPDEST PUSH32 0x4E487B7100000000000000000000000000000000000000000000000000000000 PUSH1 0x0 MSTORE PUSH1 0x12 PUSH1 0x4 MSTORE PUSH1 0x24 PUSH1 0x0 REVERT JUMPDEST PUSH1 0x0 PUSH2 0x7AC DUP3 PUSH2 0x4BD JUMP JUMPDEST SWAP2 POP PUSH2 0x7B7 DUP4 PUSH2 0x4BD JUMP JUMPDEST SWAP3 POP DUP3 PUSH2 0x7C7 JUMPI PUSH2 0x7C6 PUSH2 0x772 JUMP JUMPDEST JUMPDEST DUP3 DUP3 DIV SWAP1 POP SWAP3 SWAP2 POP POP JUMP JUMPDEST PUSH1 0x0 PUSH10 0xFFFFFFFFFFFFFFFFFFFF DUP3 AND SWAP1 POP SWAP2 SWAP1 POP JUMP JUMPDEST PUSH2 0x7F1 DUP2 PUSH2 0x7D2 JUMP JUMPDEST DUP2 EQ PUSH2 0x7FC JUMPI PUSH1 0x0 DUP1 REVERT JUMPDEST POP JUMP JUMPDEST PUSH1 0x0 DUP2 MLOAD SWAP1 POP PUSH2 0x80E DUP2 PUSH2 0x7E8 JUMP JUMPDEST SWAP3 SWAP2 POP POP JUMP JUMPDEST PUSH1 0x0 DUP2 SWAP1 POP SWAP2 SWAP1 POP JUMP JUMPDEST PUSH2 0x827 DUP2 PUSH2 0x814 JUMP JUMPDEST DUP2 EQ PUSH2 0x832 JUMPI PUSH1 0x0 DUP1 REVERT JUMPDEST POP JUMP JUMPDEST PUSH1 0x0 DUP2 MLOAD SWAP1 POP PUSH2 0x844 DUP2 PUSH2 0x81E JUMP JUMPDEST SWAP3 SWAP2 POP POP JUMP JUMPDEST PUSH1 0x0 DUP1 PUSH1 0x0 DUP1 PUSH1 0x0 PUSH1 0xA0 DUP7 DUP9 SUB SLT ISZERO PUSH2 0x866 JUMPI PUSH2 0x865 PUSH2 0x4F1 JUMP JUMPDEST JUMPDEST PUSH1 0x0 PUSH2 0x874 DUP9 DUP3 DUP10 ADD PUSH2 0x7FF JUMP JUMPDEST SWAP6 POP POP PUSH1 0x20 PUSH2 0x885 DUP9 DUP3 DUP10 ADD PUSH2 0x835 JUMP JUMPDEST SWAP5 POP POP PUSH1 0x40 PUSH2 0x896 DUP9 DUP3 DUP10 ADD PUSH2 0x604 JUMP JUMPDEST SWAP4 POP POP PUSH1 0x60 PUSH2 0x8A7 DUP9 DUP3 DUP10 ADD PUSH2 0x604 JUMP JUMPDEST SWAP3 POP POP PUSH1 0x80 PUSH2 0x8B8 DUP9 DUP3 DUP10 ADD PUSH2 0x7FF JUMP JUMPDEST SWAP2 POP POP SWAP3 SWAP6 POP SWAP3 SWAP6 SWAP1 SWAP4 POP JUMP JUMPDEST PUSH1 0x0 PUSH2 0x8D0 DUP3 PUSH2 0x814 JUMP JUMPDEST SWAP2 POP PUSH2 0x8DB DUP4 PUSH2 0x814 JUMP JUMPDEST SWAP3 POP DUP3 PUSH32 0x7FFFFFFFFFFFFFFFFFFFFFFFFFFFFFFFFFFFFFFFFFFFFFFFFFFFFFFFFFFFFFFF DIV DUP3 GT PUSH1 0x0 DUP5 SGT PUSH1 0x0 DUP5 SGT AND AND ISZERO PUSH2 0x91A JUMPI PUSH2 0x919 PUSH2 0x6E9 JUMP JUMPDEST JUMPDEST DUP2 PUSH32 0x8000000000000000000000000000000000000000000000000000000000000000 SDIV DUP4 SLT PUSH1 0x0 DUP5 SLT PUSH1 0x0 DUP5 SGT AND AND ISZERO PUSH2 0x957 JUMPI PUSH2 0x956 PUSH2 0x6E9 JUMP JUMPDEST JUMPDEST DUP3 PUSH32 0x8000000000000000000000000000000000000000000000000000000000000000 SDIV DUP3 SLT PUSH1 0x0 DUP5 SGT PUSH1 0x0 DUP5 SLT AND AND ISZERO PUSH2 0x994 JUMPI PUSH2 0x993 PUSH2 0x6E9 JUMP JUMPDEST JUMPDEST DUP3 PUSH32 0x7FFFFFFFFFFFFFFFFFFFFFFFFFFFFFFFFFFFFFFFFFFFFFFFFFFFFFFFFFFFFFFF SDIV DUP3 SLT PUSH1 0x0 DUP5 SLT PUSH1 0x0 DUP5 SLT AND AND ISZERO PUSH2 0x9D1 JUMPI PUSH2 0x9D0 PUSH2 0x6E9 JUMP JUMPDEST JUMPDEST DUP3 DUP3 MUL SWAP1 POP SWAP3 SWAP2 POP POP JUMP JUMPDEST PUSH1 0x0 PUSH2 0x9E7 DUP3 PUSH2 0x4BD JUMP JUMPDEST SWAP2 POP PUSH2 0x9F2 DUP4 PUSH2 0x4BD JUMP JUMPDEST SWAP3 POP DUP3 PUSH32 0xFFFFFFFFFFFFFFFFFFFFFFFFFFFFFFFFFFFFFFFFFFFFFFFFFFFFFFFFFFFFFFFF SUB DUP3 GT ISZERO PUSH2 0xA27 JUMPI PUSH2 0xA26 PUSH2 0x6E9 JUMP JUMPDEST JUMPDEST DUP3 DUP3 ADD SWAP1 POP SWAP3 SWAP2 POP POP JUMP JUMPDEST PUSH32 0x596F75206E65656420746F207370656E64206D6F726520455448212C20697420 PUSH1 0x0 DUP3 ADD MSTORE PUSH32 0x73686F756C64206265206D6F7265207468616E20243100000000000000000000 PUSH1 0x20 DUP3 ADD MSTORE POP JUMP JUMPDEST PUSH1 0x0 PUSH2 0xA8E PUSH1 0x36 DUP4 PUSH2 0x646 JUMP JUMPDEST SWAP2 POP PUSH2 0xA99 DUP3 PUSH2 0xA32 JUMP JUMPDEST PUSH1 0x40 DUP3 ADD SWAP1 POP SWAP2 SWAP1 POP JUMP JUMPDEST PUSH1 0x0 PUSH1 0x20 DUP3 ADD SWAP1 POP DUP2 DUP2 SUB PUSH1 0x0 DUP4 ADD MSTORE PUSH2 0xABD DUP2 PUSH2 0xA81 JUMP JUMPDEST SWAP1 POP SWAP2 SWAP1 POP JUMP INVALID LOG2 PUSH5 0x6970667358 0x22 SLT KECCAK256 0xA7 OR PUSH3 0x6BEA2D 0xD0 0xF6 PUSH25 0xBE941B1F514FEE97A57955D03B78EE24EE0338EDA16E176473 PUSH16 0x6C634300080D00330000000000000000 "
				},
				"gasEstimates": {
					"creation": {
						"codeDepositCost": "562000",
						"executionCost": "24860",
						"totalCost": "586860"
					},
					"external": {
						"addressToAmountFunded(address)": "2859",
						"fund()": "infinite",
						"getConversionRate(uint256)": "infinite",
						"getPrice()": "infinite",
						"getVersion()": "infinite",
						"owner()": "2536",
						"withdraw()": "infinite"
					}
				},
				"methodIdentifiers": {
					"addressToAmountFunded(address)": "3e47d6f3",
					"fund()": "b60d4288",
					"getConversionRate(uint256)": "6e5b6b28",
					"getPrice()": "98d5fdca",
					"getVersion()": "0d8e6e2c",
					"owner()": "8da5cb5b",
					"withdraw()": "3ccfd60b"
				}
			},
			"storageLayout": {
				"storage": [
					{
						"astId": 52,
						"contract": "contracts/FundMe.sol:FundMe",
						"label": "addressToAmountFunded",
						"offset": 0,
						"slot": "0",
						"type": "t_mapping(t_address,t_uint256)"
					},
					{
						"astId": 54,
						"contract": "contracts/FundMe.sol:FundMe",
						"label": "owner",
						"offset": 0,
						"slot": "1",
						"type": "t_address"
					}
				],
				"types": {
					"t_address": {
						"encoding": "inplace",
						"label": "address",
						"numberOfBytes": "20"
					},
					"t_mapping(t_address,t_uint256)": {
						"encoding": "mapping",
						"key": "t_address",
						"label": "mapping(address => uint256)",
						"numberOfBytes": "32",
						"value": "t_uint256"
					},
					"t_uint256": {
						"encoding": "inplace",
						"label": "uint256",
						"numberOfBytes": "32"
					}
				}
			},
			"userdoc": {
				"kind": "user",
				"methods": {},
				"version": 1
			}
		}
	}
}