{
	"contracts/SimpleStorage.sol": {
		"SimpleStorage": {
			"abi": [
				{
					"inputs": [],
					"name": "favNumber",
					"outputs": [
						{
							"internalType": "uint256",
							"name": "",
							"type": "uint256"
						}
					],
					"stateMutability": "view",
					"type": "function"
				},
				{
					"inputs": [],
					"name": "retrieve",
					"outputs": [
						{
							"internalType": "uint256",
							"name": "",
							"type": "uint256"
						}
					],
					"stateMutability": "view",
					"type": "function"
				},
				{
					"inputs": [
						{
							"internalType": "uint256",
							"name": "_favNumber",
							"type": "uint256"
						}
					],
					"name": "store",
					"outputs": [],
					"stateMutability": "nonpayable",
					"type": "function"
				}
			],
			"devdoc": {
				"kind": "dev",
				"methods": {},
				"version": 1
			},
			"evm": {
				"assembly": "    /* \"contracts/SimpleStorage.sol\":34:853  contract SimpleStorage {... */\n  mstore(0x40, 0x80)\n  callvalue\n  dup1\n  iszero\n  tag_1\n  jumpi\n  0x00\n  dup1\n  revert\ntag_1:\n  pop\n  dataSize(sub_0)\n  dup1\n  dataOffset(sub_0)\n  0x00\n  codecopy\n  0x00\n  return\nstop\n\nsub_0: assembly {\n        /* \"contracts/SimpleStorage.sol\":34:853  contract SimpleStorage {... */\n      mstore(0x40, 0x80)\n      callvalue\n      dup1\n      iszero\n      tag_1\n      jumpi\n      0x00\n      dup1\n      revert\n    tag_1:\n      pop\n      jumpi(tag_2, lt(calldatasize, 0x04))\n      shr(0xe0, calldataload(0x00))\n      dup1\n      0x2e64cec1\n      eq\n      tag_3\n      jumpi\n      dup1\n      0x6057361d\n      eq\n      tag_4\n      jumpi\n      dup1\n      0xc7a0d9f6\n      eq\n      tag_5\n      jumpi\n    tag_2:\n      0x00\n      dup1\n      revert\n        /* \"contracts/SimpleStorage.sol\":757:851  function retrieve() public view returns(uint256) {... */\n    tag_3:\n      tag_6\n      tag_7\n      jump\t// in\n    tag_6:\n      mload(0x40)\n      tag_8\n      swap2\n      swap1\n      tag_9\n      jump\t// in\n    tag_8:\n      mload(0x40)\n      dup1\n      swap2\n      sub\n      swap1\n      return\n        /* \"contracts/SimpleStorage.sol\":588:695  function store(uint256 _favNumber) public {... */\n    tag_4:\n      tag_10\n      0x04\n      dup1\n      calldatasize\n      sub\n      dup2\n      add\n      swap1\n      tag_11\n      swap2\n      swap1\n      tag_12\n      jump\t// in\n    tag_11:\n      tag_13\n      jump\t// in\n    tag_10:\n      stop\n        /* \"contracts/SimpleStorage.sol\":63:87  uint256 public favNumber */\n    tag_5:\n      tag_14\n      tag_15\n      jump\t// in\n    tag_14:\n      mload(0x40)\n      tag_16\n      swap2\n      swap1\n      tag_9\n      jump\t// in\n    tag_16:\n      mload(0x40)\n      dup1\n      swap2\n      sub\n      swap1\n      return\n        /* \"contracts/SimpleStorage.sol\":757:851  function retrieve() public view returns(uint256) {... */\n    tag_7:\n        /* \"contracts/SimpleStorage.sol\":797:804  uint256 */\n      0x00\n        /* \"contracts/SimpleStorage.sol\":835:844  favNumber */\n      dup1\n      sload\n        /* \"contracts/SimpleStorage.sol\":823:832  favNumber */\n      sload(0x00)\n        /* \"contracts/SimpleStorage.sol\":823:844  favNumber + favNumber */\n      tag_18\n      swap2\n      swap1\n      tag_19\n      jump\t// in\n    tag_18:\n        /* \"contracts/SimpleStorage.sol\":816:844  return favNumber + favNumber */\n      swap1\n      pop\n        /* \"contracts/SimpleStorage.sol\":757:851  function retrieve() public view returns(uint256) {... */\n      swap1\n      jump\t// out\n        /* \"contracts/SimpleStorage.sol\":588:695  function store(uint256 _favNumber) public {... */\n    tag_13:\n        /* \"contracts/SimpleStorage.sol\":652:662  _favNumber */\n      dup1\n        /* \"contracts/SimpleStorage.sol\":640:649  favNumber */\n      0x00\n        /* \"contracts/SimpleStorage.sol\":640:662  favNumber = _favNumber */\n      dup2\n      swap1\n      sstore\n      pop\n        /* \"contracts/SimpleStorage.sol\":672:684  uint256 test */\n      0x00\n        /* \"contracts/SimpleStorage.sol\":687:688  4 */\n      0x04\n        /* \"contracts/SimpleStorage.sol\":672:688  uint256 test = 4 */\n      swap1\n      pop\n        /* \"contracts/SimpleStorage.sol\":630:695  {... */\n      pop\n        /* \"contracts/SimpleStorage.sol\":588:695  function store(uint256 _favNumber) public {... */\n      pop\n      jump\t// out\n        /* \"contracts/SimpleStorage.sol\":63:87  uint256 public favNumber */\n    tag_15:\n      sload(0x00)\n      dup2\n      jump\t// out\n        /* \"#utility.yul\":7:146   */\n    tag_22:\n        /* \"#utility.yul\":53:58   */\n      0x00\n        /* \"#utility.yul\":91:97   */\n      dup2\n        /* \"#utility.yul\":78:98   */\n      calldataload\n        /* \"#utility.yul\":69:98   */\n      swap1\n      pop\n        /* \"#utility.yul\":107:140   */\n      tag_24\n        /* \"#utility.yul\":134:139   */\n      dup2\n        /* \"#utility.yul\":107:140   */\n      tag_25\n      jump\t// in\n    tag_24:\n        /* \"#utility.yul\":7:146   */\n      swap3\n      swap2\n      pop\n      pop\n      jump\t// out\n        /* \"#utility.yul\":152:481   */\n    tag_12:\n        /* \"#utility.yul\":211:217   */\n      0x00\n        /* \"#utility.yul\":260:262   */\n      0x20\n        /* \"#utility.yul\":248:257   */\n      dup3\n        /* \"#utility.yul\":239:246   */\n      dup5\n        /* \"#utility.yul\":235:258   */\n      sub\n        /* \"#utility.yul\":231:263   */\n      slt\n        /* \"#utility.yul\":228:347   */\n      iszero\n      tag_27\n      jumpi\n        /* \"#utility.yul\":266:345   */\n      tag_28\n      tag_29\n      jump\t// in\n    tag_28:\n        /* \"#utility.yul\":228:347   */\n    tag_27:\n        /* \"#utility.yul\":386:387   */\n      0x00\n        /* \"#utility.yul\":411:464   */\n      tag_30\n        /* \"#utility.yul\":456:463   */\n      dup5\n        /* \"#utility.yul\":447:453   */\n      dup3\n        /* \"#utility.yul\":436:445   */\n      dup6\n        /* \"#utility.yul\":432:454   */\n      add\n        /* \"#utility.yul\":411:464   */\n      tag_22\n      jump\t// in\n    tag_30:\n        /* \"#utility.yul\":401:464   */\n      swap2\n      pop\n        /* \"#utility.yul\":357:474   */\n      pop\n        /* \"#utility.yul\":152:481   */\n      swap3\n      swap2\n      pop\n      pop\n      jump\t// out\n        /* \"#utility.yul\":487:605   */\n    tag_31:\n        /* \"#utility.yul\":574:598   */\n      tag_33\n        /* \"#utility.yul\":592:597   */\n      dup2\n        /* \"#utility.yul\":574:598   */\n      tag_34\n      jump\t// in\n    tag_33:\n        /* \"#utility.yul\":569:572   */\n      dup3\n        /* \"#utility.yul\":562:599   */\n      mstore\n        /* \"#utility.yul\":487:605   */\n      pop\n      pop\n      jump\t// out\n        /* \"#utility.yul\":611:833   */\n    tag_9:\n        /* \"#utility.yul\":704:708   */\n      0x00\n        /* \"#utility.yul\":742:744   */\n      0x20\n        /* \"#utility.yul\":731:740   */\n      dup3\n        /* \"#utility.yul\":727:745   */\n      add\n        /* \"#utility.yul\":719:745   */\n      swap1\n      pop\n        /* \"#utility.yul\":755:826   */\n      tag_36\n        /* \"#utility.yul\":823:824   */\n      0x00\n        /* \"#utility.yul\":812:821   */\n      dup4\n        /* \"#utility.yul\":808:825   */\n      add\n        /* \"#utility.yul\":799:805   */\n      dup5\n        /* \"#utility.yul\":755:826   */\n      tag_31\n      jump\t// in\n    tag_36:\n        /* \"#utility.yul\":611:833   */\n      swap3\n      swap2\n      pop\n      pop\n      jump\t// out\n        /* \"#utility.yul\":920:1225   */\n    tag_19:\n        /* \"#utility.yul\":960:963   */\n      0x00\n        /* \"#utility.yul\":979:999   */\n      tag_40\n        /* \"#utility.yul\":997:998   */\n      dup3\n        /* \"#utility.yul\":979:999   */\n      tag_34\n      jump\t// in\n    tag_40:\n        /* \"#utility.yul\":974:999   */\n      swap2\n      pop\n        /* \"#utility.yul\":1013:1033   */\n      tag_41\n        /* \"#utility.yul\":1031:1032   */\n      dup4\n        /* \"#utility.yul\":1013:1033   */\n      tag_34\n      jump\t// in\n    tag_41:\n        /* \"#utility.yul\":1008:1033   */\n      swap3\n      pop\n        /* \"#utility.yul\":1167:1168   */\n      dup3\n        /* \"#utility.yul\":1099:1165   */\n      0xffffffffffffffffffffffffffffffffffffffffffffffffffffffffffffffff\n        /* \"#utility.yul\":1095:1169   */\n      sub\n        /* \"#utility.yul\":1092:1093   */\n      dup3\n        /* \"#utility.yul\":1089:1170   */\n      gt\n        /* \"#utility.yul\":1086:1193   */\n      iszero\n      tag_42\n      jumpi\n        /* \"#utility.yul\":1173:1191   */\n      tag_43\n      tag_44\n      jump\t// in\n    tag_43:\n        /* \"#utility.yul\":1086:1193   */\n    tag_42:\n        /* \"#utility.yul\":1217:1218   */\n      dup3\n        /* \"#utility.yul\":1214:1215   */\n      dup3\n        /* \"#utility.yul\":1210:1219   */\n      add\n        /* \"#utility.yul\":1203:1219   */\n      swap1\n      pop\n        /* \"#utility.yul\":920:1225   */\n      swap3\n      swap2\n      pop\n      pop\n      jump\t// out\n        /* \"#utility.yul\":1231:1308   */\n    tag_34:\n        /* \"#utility.yul\":1268:1275   */\n      0x00\n        /* \"#utility.yul\":1297:1302   */\n      dup2\n        /* \"#utility.yul\":1286:1302   */\n      swap1\n      pop\n        /* \"#utility.yul\":1231:1308   */\n      swap2\n      swap1\n      pop\n      jump\t// out\n        /* \"#utility.yul\":1314:1494   */\n    tag_44:\n        /* \"#utility.yul\":1362:1439   */\n      0x4e487b7100000000000000000000000000000000000000000000000000000000\n        /* \"#utility.yul\":1359:1360   */\n      0x00\n        /* \"#utility.yul\":1352:1440   */\n      mstore\n        /* \"#utility.yul\":1459:1463   */\n      0x11\n        /* \"#utility.yul\":1456:1457   */\n      0x04\n        /* \"#utility.yul\":1449:1464   */\n      mstore\n        /* \"#utility.yul\":1483:1487   */\n      0x24\n        /* \"#utility.yul\":1480:1481   */\n      0x00\n        /* \"#utility.yul\":1473:1488   */\n      revert\n        /* \"#utility.yul\":1623:1740   */\n    tag_29:\n        /* \"#utility.yul\":1732:1733   */\n      0x00\n        /* \"#utility.yul\":1729:1730   */\n      dup1\n        /* \"#utility.yul\":1722:1734   */\n      revert\n        /* \"#utility.yul\":1746:1868   */\n    tag_25:\n        /* \"#utility.yul\":1819:1843   */\n      tag_51\n        /* \"#utility.yul\":1837:1842   */\n      dup2\n        /* \"#utility.yul\":1819:1843   */\n      tag_34\n      jump\t// in\n    tag_51:\n        /* \"#utility.yul\":1812:1817   */\n      dup2\n        /* \"#utility.yul\":1809:1844   */\n      eq\n        /* \"#utility.yul\":1799:1862   */\n      tag_52\n      jumpi\n        /* \"#utility.yul\":1858:1859   */\n      0x00\n        /* \"#utility.yul\":1855:1856   */\n      dup1\n        /* \"#utility.yul\":1848:1860   */\n      revert\n        /* \"#utility.yul\":1799:1862   */\n    tag_52:\n        /* \"#utility.yul\":1746:1868   */\n      pop\n      jump\t// out\n\n    auxdata: 0xa2646970667358221220e4d48cf237c93940def243a08303062e1ccbabb8ce8f7276e6643e9d64449fad64736f6c63430008070033\n}\n",
				"bytecode": {
					"linkReferences": {},
					"object": "608060405234801561001057600080fd5b50610218806100206000396000f3fe608060405234801561001057600080fd5b50600436106100415760003560e01c80632e64cec1146100465780636057361d14610064578063c7a0d9f614610080575b600080fd5b61004e61009e565b60405161005b919061011c565b60405180910390f35b61007e600480360381019061007991906100e0565b6100b4565b005b6100886100c5565b604051610095919061011c565b60405180910390f35b600080546000546100af9190610137565b905090565b806000819055506000600490505050565b60005481565b6000813590506100da816101cb565b92915050565b6000602082840312156100f6576100f56101c6565b5b6000610104848285016100cb565b91505092915050565b6101168161018d565b82525050565b6000602082019050610131600083018461010d565b92915050565b60006101428261018d565b915061014d8361018d565b9250827fffffffffffffffffffffffffffffffffffffffffffffffffffffffffffffffff0382111561018257610181610197565b5b828201905092915050565b6000819050919050565b7f4e487b7100000000000000000000000000000000000000000000000000000000600052601160045260246000fd5b600080fd5b6101d48161018d565b81146101df57600080fd5b5056fea2646970667358221220e4d48cf237c93940def243a08303062e1ccbabb8ce8f7276e6643e9d64449fad64736f6c63430008070033",
					"opcodes": "PUSH1 0x80 PUSH1 0x40 MSTORE CALLVALUE DUP1 ISZERO PUSH2 0x10 JUMPI PUSH1 0x0 DUP1 REVERT JUMPDEST POP PUSH2 0x218 DUP1 PUSH2 0x20 PUSH1 0x0 CODECOPY PUSH1 0x0 RETURN INVALID PUSH1 0x80 PUSH1 0x40 MSTORE CALLVALUE DUP1 ISZERO PUSH2 0x10 JUMPI PUSH1 0x0 DUP1 REVERT JUMPDEST POP PUSH1 0x4 CALLDATASIZE LT PUSH2 0x41 JUMPI PUSH1 0x0 CALLDATALOAD PUSH1 0xE0 SHR DUP1 PUSH4 0x2E64CEC1 EQ PUSH2 0x46 JUMPI DUP1 PUSH4 0x6057361D EQ PUSH2 0x64 JUMPI DUP1 PUSH4 0xC7A0D9F6 EQ PUSH2 0x80 JUMPI JUMPDEST PUSH1 0x0 DUP1 REVERT JUMPDEST PUSH2 0x4E PUSH2 0x9E JUMP JUMPDEST PUSH1 0x40 MLOAD PUSH2 0x5B SWAP2 SWAP1 PUSH2 0x11C JUMP JUMPDEST PUSH1 0x40 MLOAD DUP1 SWAP2 SUB SWAP1 RETURN JUMPDEST PUSH2 0x7E PUSH1 0x4 DUP1 CALLDATASIZE SUB DUP2 ADD SWAP1 PUSH2 0x79 SWAP2 SWAP1 PUSH2 0xE0 JUMP JUMPDEST PUSH2 0xB4 JUMP JUMPDEST STOP JUMPDEST PUSH2 0x88 PUSH2 0xC5 JUMP JUMPDEST PUSH1 0x40 MLOAD PUSH2 0x95 SWAP2 SWAP1 PUSH2 0x11C JUMP JUMPDEST PUSH1 0x40 MLOAD DUP1 SWAP2 SUB SWAP1 RETURN JUMPDEST PUSH1 0x0 DUP1 SLOAD PUSH1 0x0 SLOAD PUSH2 0xAF SWAP2 SWAP1 PUSH2 0x137 JUMP JUMPDEST SWAP1 POP SWAP1 JUMP JUMPDEST DUP1 PUSH1 0x0 DUP2 SWAP1 SSTORE POP PUSH1 0x0 PUSH1 0x4 SWAP1 POP POP POP JUMP JUMPDEST PUSH1 0x0 SLOAD DUP2 JUMP JUMPDEST PUSH1 0x0 DUP2 CALLDATALOAD SWAP1 POP PUSH2 0xDA DUP2 PUSH2 0x1CB JUMP JUMPDEST SWAP3 SWAP2 POP POP JUMP JUMPDEST PUSH1 0x0 PUSH1 0x20 DUP3 DUP5 SUB SLT ISZERO PUSH2 0xF6 JUMPI PUSH2 0xF5 PUSH2 0x1C6 JUMP JUMPDEST JUMPDEST PUSH1 0x0 PUSH2 0x104 DUP5 DUP3 DUP6 ADD PUSH2 0xCB JUMP JUMPDEST SWAP2 POP POP SWAP3 SWAP2 POP POP JUMP JUMPDEST PUSH2 0x116 DUP2 PUSH2 0x18D JUMP JUMPDEST DUP3 MSTORE POP POP JUMP JUMPDEST PUSH1 0x0 PUSH1 0x20 DUP3 ADD SWAP1 POP PUSH2 0x131 PUSH1 0x0 DUP4 ADD DUP5 PUSH2 0x10D JUMP JUMPDEST SWAP3 SWAP2 POP POP JUMP JUMPDEST PUSH1 0x0 PUSH2 0x142 DUP3 PUSH2 0x18D JUMP JUMPDEST SWAP2 POP PUSH2 0x14D DUP4 PUSH2 0x18D JUMP JUMPDEST SWAP3 POP DUP3 PUSH32 0xFFFFFFFFFFFFFFFFFFFFFFFFFFFFFFFFFFFFFFFFFFFFFFFFFFFFFFFFFFFFFFFF SUB DUP3 GT ISZERO PUSH2 0x182 JUMPI PUSH2 0x181 PUSH2 0x197 JUMP JUMPDEST JUMPDEST DUP3 DUP3 ADD SWAP1 POP SWAP3 SWAP2 POP POP JUMP JUMPDEST PUSH1 0x0 DUP2 SWAP1 POP SWAP2 SWAP1 POP JUMP JUMPDEST PUSH32 0x4E487B7100000000000000000000000000000000000000000000000000000000 PUSH1 0x0 MSTORE PUSH1 0x11 PUSH1 0x4 MSTORE PUSH1 0x24 PUSH1 0x0 REVERT JUMPDEST PUSH1 0x0 DUP1 REVERT JUMPDEST PUSH2 0x1D4 DUP2 PUSH2 0x18D JUMP JUMPDEST DUP2 EQ PUSH2 0x1DF JUMPI PUSH1 0x0 DUP1 REVERT JUMPDEST POP JUMP INVALID LOG2 PUSH5 0x6970667358 0x22 SLT KECCAK256 0xE4 0xD4 DUP13 CALLCODE CALLDATACOPY 0xC9 CODECOPY BLOCKHASH 0xDE CALLCODE NUMBER LOG0 DUP4 SUB MOD 0x2E SHR 0xCB 0xAB 0xB8 0xCE DUP16 PUSH19 0x76E6643E9D64449FAD64736F6C634300080700 CALLER "
				},
				"gasEstimates": {
					"creation": {
						"codeDepositCost": "107200",
						"executionCost": "153",
						"totalCost": "107353"
					},
					"external": {
						"favNumber()": "2451",
						"retrieve()": "infinite",
						"store(uint256)": "22533"
					}
				},
				"methodIdentifiers": {
					"favNumber()": "c7a0d9f6",
					"retrieve()": "2e64cec1",
					"store(uint256)": "6057361d"
				}
			},
			"storageLayout": {
				"storage": [
					{
						"astId": 3,
						"contract": "contracts/SimpleStorage.sol:SimpleStorage",
						"label": "favNumber",
						"offset": 0,
						"slot": "0",
						"type": "t_uint256"
					}
				],
				"types": {
					"t_uint256": {
						"encoding": "inplace",
						"label": "uint256",
						"numberOfBytes": "32"
					}
				}
			},
			"userdoc": {
				"kind": "user",
				"methods": {},
				"version": 1
			}
		}
	}
}